:100000000C9411010C9439010C9439010C943901B0
:100010000C9439010C9439010C9439010C94390178
:100020000C9439010C9439010C9439010C94390168
:100030000C9439010C9439010C9439010C94390158
:100040000C944B0C0C9439010C94BB0C0C94950C37
:100050000C9439010C9439010C9439010C94390138
:100060000C94ED0C0C9439012B2D2D2D2D2D2D2DB7
:100070002D2D2D2D2D2D2D2D2D2B20002B20202015
:100080002020737461636B2020202020202B20739C
:10009000697A65203D20002B2D2D2D2D2D2D2D2D08
:1000A0002D2D2D2D2D2D2D2D2B20002B20202020F2
:1000B0002020202020202020202020202B002B204A
:1000C0002020202020202020202020202020202B25
:1000D000002B202020465245452052414D20202013
:1000E00020202B2073697A65203D20002B202020C2
:1000F000202020202020202020202020202B002B0A
:1001000020202020202020202020202020202020EF
:100110002B002B2D2D2D2D2D2D2D2D2D2D2D2D2D40
:100120002D2D2D2B20002B202020202020686561E4
:10013000702020202020202B2073697A65203D200C
:10014000002B2D2D2D2D2D2D2D2D2D2D2D2D2D2D0E
:100150002D2D2B20002B20202020766172696162DA
:100160006C65732020202B2073697A65203D200068
:100170002B2020202020206273732020202020208C
:10018000202B002B2D2D2D2D2D2D2D2D2D2D2D2DDD
:100190002D2D2D2D2B20002B202020207661726903
:1001A00061626C65732020202B2073697A65203D85
:1001B00020002B202020202020646174612020203A
:1001C0002020202B002B2D2D2D2D2D2D2D2D2D2DB7
:1001D0002D2D2D2D2D2D2B20000000000025002879
:1001E000002B0004040404040404040202020202BA
:1001F00002030303030303010204081020408001EB
:100200000204081020010204081020000000080069
:1002100002010000030407000000000000000000CD
:10022000080E11241FBECFEFD8E0DEBFCDBF11E016
:10023000A0E0B1E0E4EEF3E202C005900D92AE3F23
:10024000B107D9F725E0AEEFB1E001C01D92AA36A3
:10025000B207E1F711E0C1E1D1E004C02197FE014E
:100260000E941D11C031D107C9F70E94500E0C9495
:10027000F0110C94000090E0FC01E55FFD4F24912B
:10028000FC01E950FE4F3491FC01ED51FE4FE49129
:10029000EE23C9F0222339F0233001F1A8F42130F4
:1002A00019F1223029F1F0E0EE0FFF1FE752FE4F67
:1002B000A591B4918FB7F894EC91611126C0309557
:1002C0003E233C938FBF08952730A9F02830C9F012
:1002D000243049F7809180008F7D03C08091800099
:1002E0008F7780938000DFCF84B58F7784BDDBCF9D
:1002F00084B58F7DFBCF8091B0008F778093B00065
:10030000D2CF8091B0008F7DF9CF3E2BDACF3FB7AF
:10031000F8948091760490917704A0917804B0913C
:10032000790426B5A89B05C02F3F19F00196A11DA1
:10033000B11D3FBFBA2FA92F982F8827BC01CD012F
:10034000620F711D811D911D42E0660F771F881F8E
:10035000991F4A95D1F70895AF92BF92CF92DF923D
:10036000EF92FF920F931F93CF93DF936C017B016A
:100370008B01040F151FEB015E01AE18BF08C017FB
:10038000D10759F06991D601ED91FC910190F0816E
:10039000E02DC6010995892B79F7C501DF91CF9131
:1003A0001F910F91FF90EF90DF90CF90BF90AF9093
:1003B0000895FC01538D448D252F30E0842F90E06B
:1003C000821B930B541710F0CF9608950197089550
:1003D000FC01918D828D981761F0A28DAE0FBF2F19
:1003E000B11D5D968C91928D9F5F9F73928F90E06F
:1003F00008958FEF9FEF0895FC01918D828D9817DE
:1004000031F0828DE80FF11D858D90E008958FEF1A
:100410009FEF0895FC01918D228D892F90E0805CE3
:100420009F4F821B91098F73992708958EE794E05F
:100430000E940A0221E0892B09F420E0822F08950E
:1004400080E090E0892B29F00E94160281110C9423
:1004500000000895FC01A48DA80FB92FB11DA35A67
:10046000BF4F2C91848D90E001968F739927848FD4
:10047000A689B7892C93A089B1898C9183708064F7
:100480008C93938D848D981306C00288F389E02D98
:1004900080818F7D80830895EF92FF920F931F9349
:1004A000CF93DF93EC0181E0888F9B8D8C8D981327
:1004B0001AC0E889F989808185FF15C09FB7F89433
:1004C000EE89FF896083E889F9898081837080647F
:1004D00080839FBF81E090E0DF91CF911F910F91CA
:1004E000FF90EF900895F62E0B8D10E00F5F1F4FD9
:1004F0000F731127E02E8C8D8E110CC00FB607FCE8
:10050000FACFE889F989808185FFF5CFCE010E9475
:100510002A02F1CFEB8DEC0FFD2FF11DE35AFF4FB7
:10052000F0829FB7F8940B8FEA89FB898081806203
:10053000CFCF0F931F93CF93DF938C01D0E0C0E018
:10054000F801EC0FFD1F6491662341F08EE794E003
:100550000E944C02892B11F02196F2CFCE01DF913F
:10056000CF911F910F910895CF93DF93EC01888D68
:100570008823B9F0AA89BB89E889F9898C9185FD1E
:1005800003C0808186FD0DC00FB607FCF7CF8C91AC
:1005900085FFF2CF808185FFEDCFCE010E942A0238
:1005A000E9CFDF91CF910895089520916F02211135
:1005B00009C021E020936F02309164052091650508
:1005C0003CBD2DBD60E0FC0184810C943B0161E0E9
:1005D000FC0184810E943B0180916F028111109285
:1005E0006F0208958EBD00000DB407FEFDCF8EB5DD
:1005F00008958FEF0C94F2020F931F93CF93DF9324
:100600008C012FB7F89480917A0490917B04A0918B
:100610007C04B0917D042FBFEC010E94F9028F3F52
:10062000B1F02FB7F89480917A0490917B04A09157
:100630007C04B0917D042FBF8C1B9D0B801791070C
:1006400060F380E0DF91CF911F910F91089581E0D9
:10065000F9CFCF92DF92EF92FF920F931F93CF9338
:10066000DF93EC01162F69017A018E81882389F0CE
:100670008F8198859C012F5F3F4F38872F83823071
:10068000924018F40E94F902F3CFCE010E94E702D3
:100690001E82CE010E94D5028CE291E00E94FC02F3
:1006A000812F80640E94F20208E110E0D701C601A8
:1006B000002E04C0B695A795979587950A94D2F712
:1006C0000E94F20208501109083F8FEF180771F7D6
:1006D0008FEF0E94F20210E00E94F9028A8787FFE2
:1006E00004C01F3F11F01F5FF7CFDF91CF911F9123
:1006F0000F91FF90EF90DF90CF900895CF92DF920F
:10070000EF92FF920F93CF93DF93EC01690182E1A7
:10071000411551056105710599F08B85833039F0DC
:1007200089E0440F551F661F771F8A95D1F79A01FC
:10073000AB0168E1CE010E942903882319F084E00F
:100740008D832DC08EEF0E94F20276018EEFD81AB3
:10075000F70181917F010E94F202EC14FD04C1F7C0
:100760008FEF0E94F2028FEF0E94F2020E94F902C4
:100770008A878F71853071F4011116C0CE010E94F5
:10078000E70281E0DF91CF910F91FF90EF90DF9032
:10079000CF90089581E18D83CE010E94E702CE01C2
:1007A0000E94E70280E0EECF88E592E00E94FC0222
:1007B000811102C085E1C4CF20E030E0A9016DE0E5
:1007C000CE010E942903882311F084E1B9CF0E9451
:1007D000F9028111FACFD2CF0F934091710250915B
:1007E00072026091730270917402411551056105A6
:1007F000710589F0082F25E732E090E080E00E9443
:100800007E03882349F010927102109272021092B6
:1008100073021092740281E00F9108950F93CF93A9
:10082000C82F80917002811105C0C1E08C2FCF913B
:100830000F910895409100015091010160910201D2
:10084000709103010C2F25E732E090E080E00E94D8
:100850007E03811102C0C0E0E9CFCC2331F381E0F7
:100860000E94EC038823B9F310927002DFCFAF929D
:10087000BF92CF92DF92EF92FF921F93CF93DF93BD
:100880006B017C01142F8091000190910101A091D6
:100890000201B09103018C159D05AE05BF0509F459
:1008A000BFC081E00E940E048823E1F18091060020
:1008B0008823A1F08091000090910100A091020096
:1008C000B0910300C816D906EA06FB0639F48091F8
:1008D000070090910800892B09F461C0C0920000C4
:1008E000D0920100E0920200F092030080910B0090
:1008F000A7019601833039F099E0220F331F441F7E
:10090000551F9A95D1F761E190E080E00E9429039C
:10091000882391F083E08093050090E080E00E94BE
:10092000E70280E0DF91CF911F91FF90EF90DF9081
:10093000CF90BF90AF9008952FB7F89480917A042C
:1009400090917B04A0917C04B0917D042FBFEC01B9
:100950000E94F90280930A008F3FC1F42FB7F894E8
:1009600080917A0490917B04A0917C04B0917D04E5
:100970002FBF8C1B9D0B8D32914050F38FE08093E5
:10098000050090E080E00E94E702C7CF8E3FC1F5EE
:10099000109208001092070081E080930600C5E7DE
:1009A000D2E085E7A82E84E0B82E0E94F902899350
:1009B000AC16BD06D1F780910700909108009E5FAC
:1009C000909308008093070020910900222319F0DA
:1009D00081159240E8F0809106008823C9F080914B
:1009E0000700909108009C012F5F3F4F3093080053
:1009F000209307008230924028F40E94F902EFCF42
:100A00008DE0BDCF90E080E00E94E70210920600EA
:100A1000C0920001D0920101E0920201F092030124
:100A200040917002412B4093700281E07BCF4F9246
:100A30005F926F927F928F929F92AF92BF92CF926E
:100A4000DF92EF92FF920F931F93CF93DF93EC010E
:100A5000423051056105710590F480E0DF91CF913E
:100A60001F910F91FF90EF90DF90CF90BF90AF90CC
:100A70009F908F907F906F905F904F9008958985A1
:100A80009A85AB85BC850196A11DB11D841795077C
:100A9000A607B70710F3CB88DC88ED88FE888F891E
:100AA000803109F042C0BB27A72F962F852F480120
:100AB00059012A013B01C80ED91EEA1EFB1E809176
:100AC000000190910101A0910201B0910301C816AB
:100AD000D906EA06FB0699F58F898031C1F5B30185
:100AE000A201552766277727440F551F4B585D4FA6
:100AF000FA019182808280917002816080937002FD
:100B00008A89823080F08D819E81AF81B8858C0D7D
:100B10009D1DAE1DBF1D8093710290937202A09324
:100B20007302B093740281E099CFDB01CA01E7E060
:100B3000B695A79597958795EA95D1F7B8CF40E0F8
:100B4000C701B6010E9437048111C6CF86CFB30119
:100B5000A2014F77552766277727440F551F440F6B
:100B6000551F4B585D4FFA0180829182A282B38259
:100B7000C2CF8F929F92AF92BF92CF92DF92EF92AD
:100B8000FF920F931F93CF93DF93FC018185928592
:100B9000A385B4850196A11DB11D84179507A607ED
:100BA000B70770F480E0DF91CF911F910F91FF9014
:100BB000EF90DF90CF90BF90AF909F908F9008956F
:100BC00083889488A588B6888789803189F5BB2772
:100BD000A72F962F852FE9016A017B018F01BC01A8
:100BE000CD01680D791D8A1D9B1D8090000190909C
:100BF0000101A0900201B090030186169706A80695
:100C0000B90601F5F8018789803111F5DD24EE245C
:100C1000FF24F601EE0FFF1FEB58FD4F80819181FD
:100C2000B0E0A0E088839983AA83BB8381E0BBCF37
:100C3000DB01CA01C7E0B695A79597958795CA9538
:100C4000D1F7C9CF40E00E9437048111DBCFAACF92
:100C5000E894C7F8DD24EE24FF24F601EE0FFF1F11
:100C6000EE0FFF1FEB58FD4F80819181A281B38170
:100C7000BF70D8CF8F929F92AF92BF92CF92DF92E8
:100C8000EF92FF920F931F93CF93DF93EC018D812F
:100C900081110EC080E0DF91CF911F910F91FF90E5
:100CA000EF90DF90CF90BF90AF909F908F9008957E
:100CB0000B891C892D893E890417150726073707DC
:100CC00048F34A015B01823031F48A869B86AC8608
:100CD000BD8681E0E0CF81149104A104B10449F400
:100CE0001E821F82188619861A861B861C861D8600
:100CF000F0CF0A851B852C853D85EB8DFC8D858588
:100D000090E00996B901A8014150510961097109A2
:100D1000082E04C076956795579547950A94D2F7A3
:100D200075016401E1E0CE1AD108E108F10804C0C0
:100D3000F694E794D794C7948A95D2F7C416D5064B
:100D4000E606F70620F0012B022B032B11F58F8905
:100D5000988DA98DBA8D8E839F83A887B9878E01C0
:100D60000A5F1F4FC114D104E104F10409F4ADCFAF
:100D70004E815F816885798598018B8D9C8D0E945D
:100D8000B90591E0C91AD108E108F1088111EACF4B
:100D900081CFC41AD50AE60AF70AE1CF3F924F92F3
:100DA0005F926F927F928F929F92AF92BF92CF92FB
:100DB000DF92EF92FF920F931F93CF93DF93CDB704
:100DC000DEB72C970FB6F894DEBF0FBECDBF5C0127
:100DD000DC015B968D909C905C9716964D905D9093
:100DE0006D907C901997411451046104710409F4C9
:100DF00068C0BFEF4B1A5B0A6B0A7B0A312CF40107
:100E000081859285A385B4859C01AD012F5F3F4FFD
:100E10004F4F5F4F29873A874B875C877301620189
:100E20001D821E821F821886F40181859285A3850A
:100E3000B4852D813E814F815885281739074A078F
:100E40005B0708F056C089859A85AB85BC858C15F3
:100E50009D05AE05BF0550F482E0C82ED12CE12CD3
:100E6000F12C92E0492E512C612C712C9E012F5FA8
:100E70003F4FB701A601C4010E94B9058823C9F1FB
:100E800089819A81AB81BC81892B8A2B8B2B09F1BB
:100E9000260137019FEF491A590A690A790A2D81FB
:100EA0003E814F8158852F5F3F4F4F4F5F4F2D83BE
:100EB0003E834F8358873FEFC31AD30AE30AF30AEE
:100EC000B3CFF40140805180628073803324339427
:100ED00096CFC414D504E604F70409F70FEF1FEF0B
:100EE0002FEF3FE0B701A601C4010E941705811151
:100EF00019C080E02C960FB6F894DEBF0FBECDBFB0
:100F0000DF91CF911F910F91FF90EF90DF90CF90E5
:100F1000BF90AF909F908F907F906F905F904F9019
:100F20003F900895D50116964D915D916D917C91FC
:100F30001997411551056105710539F09701860131
:100F4000C4010E9417058823A1F2D5011696CD92FF
:100F5000DD92ED92FC921997332051F0D701C60132
:100F60000196A11DB11DF40180839183A283B383F7
:100F7000F5018789908DA18DB28D892B8A2B8B2BC2
:100F800039F48481C78AD08EE18EF28E80688483A2
:100F9000F50184818062848381E0ACCF1F93CF937D
:100FA000DF93EC01162F8C8187FF2AC06E857F8529
:100FB0008889998941E00E943704882361F1EA8990
:100FC00080E2E89FF0011124EB58FD4F309719F1B2
:100FD0008D81823040F48B899C89AD89BE89848F54
:100FE000958FA68FB78F8F89988D938F828F8F89DA
:100FF000988DA98DBA8DB58BA48B8C818F778C83BE
:10100000111103C08C818F7E8C83812FDF91CF9152
:101010001F910C940E0480E0DF91CF911F910895F1
:101020001F93CF93DF93EC018D81813031F090E0FD
:1010300080E0DF91CF911F9108958C8181FFF7CFE0
:1010400082FD1BC090E080E00E94D5020E94F90260
:10105000182F90E080E00E94E7021F3F41F78C814B
:1010600085FF1EC08D81882321F060E0CE010E94A3
:10107000CE078C818F7D8C83DACF4B895C896D891B
:101080007E898A859B85AC85BD8584179507A607D3
:10109000B707C1F2CE010E943A068111D3CFC7CF64
:1010A00040917102509172026091730270917402CA
:1010B000452B462B472B21F080E00E94EC03B7CF55
:1010C00080618C832A853B85317080E092E0821BB1
:1010D000930BAFCF9F92AF92BF92CF92DF92EF92DE
:1010E000FF920F931F93CF93DF9300D000D01F92F6
:1010F000CDB7DEB78C016D83DC0115968C91159709
:10110000813009F0B9C014968C9181FFB5C082FD81
:101110009FC0D8015B96ED91FC915C971A96AD90BB
:10112000BD90CD90DC901D9794809A94B601A50156
:1011300089E076956795579547958A95D1F79422DA
:10114000B1E0BB22992009F49FC0D8015B96ED91D4
:10115000FC915C971696CD90DD90ED90FC901997E0
:10116000B2E0CB1AD108E108F108858504C0CC0CA7
:10117000DD1CEE1CFF1C8A95D2F7468557856089D9
:101180007189C40ED51EE61EF71EC90CD11CE11CC8
:10119000F11CA114B10409F00AC1F801428553857C
:1011A0006485758583899489A589B6894817590707
:1011B0006A077B0708F4FBC081E00E940E048823C5
:1011C00009F45AC0C0920001D0920101E0920201DC
:1011D000F092030180917002816080937002F501AA
:1011E000EB58FD4F8D818083F80182859385A4851E
:1011F000B5850196A11DB11D82879387A487B58708
:101200004389548965897689481759076A077B0796
:1012100038F42481838B948BA58BB68B2068248330
:10122000D80114968C9183FD9FC081E090E00F90CF
:101230000F900F900F900F90DF91CF911F910F9112
:10124000FF90EF90DF90CF90BF90AF909F90089568
:10125000F801438954896589768982859385A485B7
:10126000B585481759076A077B0709F452CFC801AB
:101270000E943A0681114DCF81E090E0D80113968B
:101280009C938E93129749C0D80116964D915D910B
:101290006D917C911997A114B10409F071C04115A9
:1012A00051056105710589F557968D919D910D90B8
:1012B000BC91A02D0097A105B10509F04FC0C80150
:1012C0000E94CE068823C1F2D8015B96ED91FC9175
:1012D0005C971696CD90DD90ED90FC901997B2E05A
:1012E000CB1AD108E108F108858504C0CC0CDD1CBF
:1012F000EE1CFF1C8A95D2F7468557856089718957
:10130000C40ED51EE61EF71E48CF9E012F5F3F4F2D
:10131000CF010E94B905811103C090E080E087CF22
:1013200089819A81AB81BC81F801238D348DF901CB
:10133000278948EF5FEF60E070E0203121F048EF4F
:101340005FEF6FEF7FE084179507A607B70730F0D0
:10135000C8010E94CE068111F8CE8ECFF801868397
:101360009783A087B187F1CEF8018581882309F49E
:1013700083CF61E0C8010E94CE07811156CF7CCF98
:101380006A017B01B2E0CB1AD108E108F10885853A
:1013900004C0CC0CDD1CEE1CFF1C8A95D2F74685E0
:1013A000578560897189C40ED51EE61EF71E41E07F
:1013B000C701B6010E943704811111CF5DCF089596
:1013C0008FEF9FEF08958FEF9FEF089580916E024A
:1013D00090E0919581959109089590E080E00895BD
:1013E00020912402260F3327331F21323105ECF4DC
:1013F00020914802FC0190E080E0243069F082E016
:101400000895A09124022191AC014C5F5D4FA40F7F
:10141000B52FB11D2C930196861798F38091240265
:10142000680F6093240280E0089581E00895CF93CF
:10143000DF93CB01EA01642F0E94F009CE01DF9116
:10144000CF910895CF93DF931F92CDB7DEB7698315
:1014500061E0CE0101960E94F00981E090E00F90DA
:10146000DF91CF910895FC0101900020E9F73197B9
:10147000AF01481B590BBC018EE794E00C94AC0102
:1014800088E291E00C94330ACF93DF930E94330AF1
:10149000EC010E94400A8C0F9D1FDF91CF910895AF
:1014A0008F929F92AF92BF92CF92DF92EF92FF9274
:1014B0000F931F93CF93DF93CDB7DEB7A1970FB6EE
:1014C000F894DEBF0FBECDBF6C01990FEE08FF0888
:1014D000F7FE41C06DE28EE794E00E944C028C0161
:1014E00022273327A9012C193D094E095F0919A2AA
:1014F000CE0181967C019AE0892E912CA12CB12CF1
:10150000CA01B901A50194010E94FB10605DF701B9
:1015100062937F01211531054105510589F790E05E
:1015200080E0309719F0CF010E94330A800F911F9D
:10153000A1960FB6F894DEBF0FBECDBFDF91CF915D
:101540001F910F91FF90EF90DF90CF90BF90AF90E1
:101550009F908F900895A701960119A28E010F5DAB
:101560001F4F8AE0C82ED12CE12CF12CCA01B90101
:10157000A70196010E94FB10605DF80162938F0144
:10158000211531054105510589F790E080E030973C
:1015900079F2CF010E94330ACBCFCF93DF930E9421
:1015A000500AEC010E94400A8C0F9D1FDF91CF91E1
:1015B00008958F929F92AF92BF92CF92DF92EF9257
:1015C000FF920F931F93CF93DF938EEF91E09C01D7
:1015D0002050314069018AE695E09C012E5F314040
:1015E000790100916605109167050115110511F447
:1015F0000AE615E0C8018A5695404C018DB79EB7A2
:10160000C0E0D9E05E01A81AB90AC050D140C601B5
:101610008E0D9F1D880D991D8A0D9B1DC81BD90B12
:1016200085EC91E00E94990280E091E00E94500ACE
:101630008BE291E00E94440A82EB91E00E949902C1
:101640000E94400A87E991E00E949902C6010E9427
:10165000CD0A83E891E00E9499028EEF91E00E940A
:10166000500A8BE391E00E94440A80E791E00E94D7
:1016700099020E94400A85E591E00E949902C70103
:101680000E94CD0A81E491E00E9499028AE695E0E9
:101690000E94500A87E591E00E94440A86E291E0A8
:1016A0000E949902C4010E94CD0A82E191E00E9449
:1016B0009902C8010E94500A83E791E00E94440AFF
:1016C0008FEF90E00E9499020E94400A8CEE90E019
:1016D0000E9499020E94400A81ED90E00E949902C6
:1016E000CE010E94CD0A8EEB90E00E9499020E94EA
:1016F000400A8BEA90E00E9499020E94400A87E922
:1017000090E00E9499028DB79EB70E94500A89E925
:1017100091E00E94440A8CE790E00E949902C50182
:101720000E94CD0A88E690E00E9499028FEF98E02F
:101730000E94500A8FE991E00E94440A0E94400AE8
:10174000DF91CF911F910F91FF90EF90DF90CF909D
:10175000BF90AF909F908F900C94400A0F931F936F
:10176000CF93DF93EC0188819981009759F02A810A
:101770003B812617370730F081E0DF91CF911F9131
:101780000F9108958B016F5F7F4F0E942311009787
:1017900059F0998388831B830A832C813D81232BF5
:1017A00059F7FC011082E8CF80E0E7CF1F93CF9379
:1017B000DF9385ED8093BC0080910002909101023F
:1017C000A0910202B09103020796A11DB11D23E072
:1017D000B695A795979587952A95D1F72091BC0046
:1017E00024FD03C01092480252C040910002509163
:1017F00001026091020270910302452B462B472B98
:1018000069F30097A105B10541F02AE22A95F1F7A5
:1018100000C00197A109B109E1CF8091FF01C1E0AA
:10182000C093FE01882399F1D091B8001091BA00BD
:101830008091BC008A7B8093BC0060E082E10E94C2
:101840003B0160E083E10E943B0110924802C0939B
:101850004A021092490261E082E10E943B0161E08C
:1018600083E10E943B018091B9008E7F8093B90093
:101870008091B9008D7F8093B90088E48093B8008F
:1018800085E48093BC001093BA00D093B800DF9138
:10189000CF911F9108951F920F920FB60F921124AE
:1018A0002F933F938F939F93AF93BF9380917A042D
:1018B00090917B04A0917C04B0917D0430917504DB
:1018C00023E0230F2D3758F50196A11DB11D20935C
:1018D000750480937A0490937B04A0937C04B09366
:1018E0007D048091760490917704A0917804B09162
:1018F00079040196A11DB11D80937604909377041D
:10190000A0937804B0937904BF91AF919F918F9188
:101910003F912F910F900FBE0F901F90189526E8C2
:10192000230F0296A11DB11DD2CF1F920F920FB6A9
:101930000F9211242F933F934F935F936F937F9355
:101940008F939F93AF93BF93EF93FF938EE794E0B2
:101950000E942A02FF91EF91BF91AF919F918F91C9
:101960007F916F915F914F913F912F910F900FBE9B
:101970000F901F9018951F920F920FB60F9211247F
:101980002F938F939F93EF93FF93E0918E04F091A9
:101990008F048081E0919404F091950482FD1BC036
:1019A0009081809197048F5F8F73209198048217A4
:1019B00041F0E0919704F0E0E258FB4F958F80935F
:1019C0009704FF91EF919F918F912F910F900FBEF0
:1019D0000F901F9018958081F4CF1F920F920FB631
:1019E0000F9211242F933F934F935F936F937F93A5
:1019F0008F939F93AF93BF93EF93FF938091B90021
:101A0000887F803609F44AC0F0F5883209F4A5C011
:101A100018F5803109F499C0B8F4882309F4F5C0A9
:101A2000883009F492C0FF91EF91BF91AF919F91DF
:101A30008F917F916F915F914F913F912F910F9077
:101A40000FBE0F901F901895883109F486C0803220
:101A500051F78093470214C0803409F49BC040F4CE
:101A60008033B9F38833F9F68093470285ECAEC032
:101A7000803509F483C0883509F494C0883499F618
:101A80000E94D60BD0CF883909F48AC038F5883740
:101A900029F050F4883611F0803729F683E08093DE
:101AA00048021092460255C0883809F479C080393E
:101AB00019F0803809F0B7CF80914602803208F0E3
:101AC0006FC0E091460281E08E0F809346028091C4
:101AD000BB00F0E0EA5DFD4F80833BC0803B39F006
:101AE000D0F4803A09F477C0883A09F09CCF84E0BA
:101AF000809348021092250210922402F0E0E0E068
:101B000009958091240281110FC081E08093240205
:101B10001092040209C0803C09F4A8CF883C09F463
:101B2000A5CF883B09F07FCFE091250281E08E0FA1
:101B300080932502F0E0EC5FFD4F80818093BB0035
:101B4000909125028091240229C080916D0280939A
:101B5000BB0085EC8093BC0066CF90916C028091B5
:101B60006B02981758F5E0916C0281E08E0F80931C
:101B70006C02F0E0E55BFD4F8081E9CFE0916C0203
:101B800081E08E0F80936C028091BB00F0E0E55BFA
:101B9000FD4F808390916C0280916B029817C8F280
:101BA00085E8D8CFE0916C0281E08E0F80936C02C3
:101BB0008091BB00F0E0E55BFD4F808380914A029D
:101BC00081115ECF81E08093490284EA8093BC005A
:101BD0001092480228CF85EC8093BC0010924802F6
:101BE00080914602803230F4E0914602F0E0EA5DF6
:101BF000FD4F10826091460270E086E292E0F0E0D4
:101C0000E0E00995109246020ECF1092470238CFBD
:101C1000EEE7F4E01382128288EE93E0A0E0B0E0F9
:101C200084839583A683B7838EE091E0918380833C
:101C300085EC90E09587848784EC90E09787868791
:101C400080EC90E0918B808B81EC90E0938B828B89
:101C500082EC90E0958B848B86EC90E0978B868B62
:101C6000118E128E138E148EEBE1F5E01582168222
:101C70001186138682E090E0A0E0B0E0848795872B
:101C8000A687B78713A215A614A680E291E093A7B2
:101C900082A717A6E4E6F5E080E580831182089527
:101CA000789484B5826084BD84B5816084BD85B537
:101CB000826085BD85B5816085BD80916E00816043
:101CC00080936E00109281008091810082608093E9
:101CD00081008091810081608093810080918000EB
:101CE0008160809380008091B10084608093B10016
:101CF0008091B00081608093B00080917A00846010
:101D000080937A0080917A00826080937A0080913B
:101D10007A00816080937A0080917A008068809355
:101D20007A001092C100E0918E04F0918F0482E05D
:101D30008083E0918A04F0918B041082E0918C04FE
:101D4000F0918D048FEC808310929604E0919204C0
:101D5000F091930486E08083E0919004F0919104E7
:101D6000808180618083E0919004F0919104808172
:101D700088608083E0919004F09191048081806874
:101D80008083E0919004F091910480818F7D808325
:101D900090E0E92E90E0F92E83EB91E00E94440A56
:101DA0000E94D90A86E090E00E949F0FEC01198200
:101DB00018821B821A821D821C8270E060E00E94E1
:101DC000AE0B288139818111AAC02115310519F086
:101DD000C9010E943B10198218821D821C821B823D
:101DE0001A820E94D90A0C811D810F5F1F4FB80112
:101DF000CE010E94AE0B882361F0288139818C814D
:101E00009D8161ED71E0820F931F0E94E9111D8396
:101E10000C830E94D90A209749F088819981009704
:101E200011F00E943B10CE010E943B1083ED91E027
:101E30000E94440A0E94D90A86E090E00E949F0F07
:101E4000EC01198218821B821A821D821C8270E0AA
:101E500060E00E94AE0B28813981811168C0211594
:101E6000310519F0C9010E943B10198218821D82A8
:101E70001C821B821A820C811D81065F1F4FB801D4
:101E8000CE010E94AE0B882361F0288139818C81BC
:101E90009D8163EF71E0820F931F0E94E9111D8302
:101EA0000C830E94D90A209749F088819981009774
:101EB00011F00E943B10CE010E943B100E9487014E
:101EC0002B013C0188E9882E8AE3982EA12CB12CA5
:101ED0000E9487016419750986099709683E734055
:101EE00081059105A8F321E0821A9108A108B108A3
:101EF00088EE480E83E0581E611C711C8114910409
:101F0000A104B10429F7E114F10409F445CF0E94BA
:101F10001602882309F440CF0E9400003DCF1D82A5
:101F20001C826AE271E0C9010E94E9115ACF1D8248
:101F30001C826AE271E0C9010E94E9119CCF0F93F3
:101F40001F93CF93DF938230910510F482E090E0ED
:101F5000E0916805F091690530E020E0B0E0A0E094
:101F6000309799F42115310509F44AC0281B390B23
:101F700024303105D8F58A819B816115710589F17D
:101F8000FB0193838283FE0111C040815181028154
:101F9000138148175907E0F04817590799F410972B
:101FA00061F012960C93129713961C933296CF0100
:101FB000DF91CF911F910F910895009368051093C1
:101FC0006905F4CF2115310551F04217530738F058
:101FD000A901DB019A01BD01DF01F801C1CFEF01C9
:101FE000F9CF9093690580936805CDCFFE01E20F8C
:101FF000F31F819391932250310939832883D7CFDE
:102000002091660530916705232B41F4209106014C
:1020100030910701309367052093660520910401F4
:10202000309105012115310541F42DB73EB740919E
:10203000080150910901241B350BE0916605F091D0
:102040006705E217F307A0F42E1B3F0B281739078B
:1020500078F0AC014E5F5F4F2417350748F04E0F04
:102060005F1F5093670540936605819391939FCFBF
:10207000F0E0E0E09CCFCF93DF930097E9F0FC0124
:10208000329713821282A0916805B0916905ED0123
:1020900030E020E01097A1F420813181820F931F5E
:1020A00020916605309167052817390709F061C04E
:1020B000F0936705E0936605DF91CF910895EA01FB
:1020C000CE17DF07E8F54A815B819E014115510576
:1020D000B1F7E901FB83EA8349915991C40FD51FF8
:1020E000EC17FD0761F4808191810296840F951FA2
:1020F000E90199838883828193819B838A83F0E0BD
:10210000E0E012968D919C9113970097B9F52D916F
:102110003C911197CD010296820F931F2091660585
:10212000309167052817390739F6309751F5109225
:10213000690510926805B0936705A0936605BCCF4A
:10214000D383C28340815181840F951FC817D9075B
:1021500061F44E5F5F4F88819981480F591F518309
:1021600040838A819B81938382832115310509F005
:10217000B0CFF0936905E09368059ECFFD01DC01C7
:10218000C0CF13821282D7CF2F923F924F925F928D
:102190006F927F928F929F92AF92BF92CF92DF9277
:1021A000EF92FF920F931F93CF93DF93CDB7DEB7DC
:1021B000CA1BDB0B0FB6F894DEBF0FBECDBF099470
:1021C0002A88398848885F846E847D848C849B84C7
:1021D000AA84B984C884DF80EE80FD800C811B81D5
:1021E000AA81B981CE0FD11D0FB6F894DEBF0FBE04
:1021F000CDBFED010895A1E21A2EAA1BBB1BFD0164
:102200000DC0AA1FBB1FEE1FFF1FA217B307E407D5
:10221000F50720F0A21BB30BE40BF50B661F771F2D
:10222000881F991F1A9469F760957095809590950D
:102230009B01AC01BD01CF010895EE0FFF1F05907A
:10224000F491E02D0994B0E0A0E0E9E2F1E10C9412
:10225000C6108C01009751F4CB010E949F0F8C0196
:10226000C801CDB7DEB7E0E10C94E210FC01E60F47
:10227000F71F9C0122503109E217F30708F49DC0B3
:10228000D901CD91DC911197C617D70798F0C530C9
:10229000D10530F3CE0104978617970708F3C61BC4
:1022A000D70B2297C193D1936D937C93CF010E945A
:1022B0003B10D6CF5B01AC1ABD0A4C018C0E9D1EA3
:1022C000A0916805B0916905512C412CF12CE12CAD
:1022D000109731F5809166059091670588159905ED
:1022E00009F05CC04616570608F058C080910401FA
:1022F00090910501009741F48DB79EB74091080178
:1023000050910901841B950BE817F90708F055C097
:10231000F0936705E0936605F90171836083A0CFB0
:102320008D919C91119712966C90129713967C90B8
:102330001397A815B90559F56C0142E0C40ED11CDC
:10234000CA14DB0420F1AC014A195B09DA011296C8
:10235000159780F06282738251834083D9016D9317
:102360007C93E114F10471F0D7011396FC93EE9382
:10237000129776CF22968C0F9D1FF901918380834F
:10238000F301EFCFF0936905E093680569CF481634
:10239000590608F42C017D01D3019ACFCB010E948C
:1023A0009F0F7C01009749F0AE01B8010E94E01137
:1023B000C8010E943B10870153CF10E000E050CFCE
:1023C000FB01DC0102C001900D9241505040D8F752
:1023D0000895FB01DC0101900D920020E1F70895C2
:0423E000F894FFCF9F
:1023E400FFFFFFFF00006A058000000000004C02B0
:1023F400AC01D901B4020A02E801FC0100000000AA
:102404006A08AC011008D4020D0A0020285F5F643A
:102414006174615F7374617274290020285F5F6462
:102424006174615F656E64202F205F5F6273735F08
:102434007374617274290020285F5F6273735F652F
:102444006E64202F205F5F686561705F73746172D2
:1024540074290020285F5F62726B76616C20696664
:10246400206E6F7420302C206F72205F5F6865616E
:10247400705F7374617274290020285350290020FE
:102484002852414D454E44202F205F5F7374616391
:102494006B29005041525445205052494D412E2E33
:1024A4002E2E2E2E2E2E2E2E2E2E2E2E2E2E2E2056
:1024B4000030005041525445205345434F4E44414F
:1024C4002E2E2E2E2E2E2E2E2E2E2E2E2E2E2E2E28
:0E24D4002E200030313233343536373839009F
:00000001FF
