:100000000C94E2000C940A010C940A010C940A016D
:100010000C940A010C940A010C940A010C940A0134
:100020000C940A010C940A010C940A010C940A0124
:100030000C940A010C940A010C940A010C940A0114
:100040000C948C150C940A010C94FC150C94D61588
:100050000C940A010C940A010C940A010C940A01F4
:100060000C942E160C940A0100407A10F35A00A04A
:10007000724E18090010A5D4E80000E87648170071
:1000800000E40B54020000CA9A3B000000E1F505B1
:10009000000080969800000040420F000000A086FB
:1000A00001000000102700000000E803000000002D
:1000B0006400000000000A000000000001000000D1
:1000C00000002C76D888DC674F0823DFC1DFAE59EB
:1000D000E1B1B796E5E3E453C63AE651997696E87E
:1000E000E6C28426EB898C9B62ED407C6FFCEFBC02
:1000F0009C9F40F2BAA56FA5F490055A2AF75C932D
:100100006B6CF9676DC11BFCE0E40D47FEF520E662
:10011000B500D0ED902E0300943577050080841E45
:10012000080000204E0A000000C80C333333330FA0
:10013000986E12831141EF8D2114893BE65516CF3D
:10014000FEE6DB18D1844B381BF77C1D901DA4BB49
:10015000E424203284725E228100C9F124ECA1E5FE
:100160003D277C3C3E5E2B3D3F2F5B5D3B2C2A2296
:100170005C0000000008000201000003040700000A
:1001800000000000000000000000250028002B00F7
:1001900000000000240027002A00040404040404D2
:1001A0000404020202020202030303030303010226
:1001B00004081020408001020408102001020408F5
:1001C00010204D1711241FBECFEFD8E0DEBFCDBFEA
:1001D00026E0A8E3B2E001C01D92A038B207E1F723
:1001E00012E0A0E0B1E0E0EAFAE402C005900D926E
:1001F000A833B107D9F710E0C2EED0E004C02197D0
:10020000FE010E948E20C13ED107C9F70E94BC1793
:100210000C944E250C94000090E0FC01E255FE4F3A
:10022000249186569E4FFC018491882399F090E09A
:10023000880F991FFC01E057FE4FA591B491FC0176
:10024000EA57FE4F859194918FB7F894EC91E22B89
:10025000EC938FBF089590E0FC01EE58FE4F24917F
:10026000FC01E255FE4F3491FC01E656FE4FE4914D
:10027000EE23C9F0222339F0233001F1A8F4213014
:1002800019F1223029F1F0E0EE0FFF1FEA57FE4F7F
:10029000A591B4918FB7F894EC91611126C0309577
:1002A0003E233C938FBF08952730A9F02830C9F032
:1002B000243049F7809180008F7D03C080918000B9
:1002C0008F7780938000DFCF84B58F7784BDDBCFBD
:1002D00084B58F7DFBCF8091B0008F778093B00085
:1002E000D2CF8091B0008F7DF9CF3E2BDACF8E3008
:1002F00008F08E508770806480937C0080917A0033
:10030000806480937A0080917A0086FDFCCF809192
:1003100078009091790008953FB7F8948091A302F6
:100320009091A402A091A502B091A60226B5A89B27
:1003300005C02F3F19F00196A11DB11D3FBFBA2F77
:10034000A92F982F8827BC01CD01620F711D811D37
:10035000911D42E0660F771F881F991F4A95D1F7BC
:1003600008952FB7F89460919F027091A002809138
:10037000A1029091A2022FBF0895089508950895B3
:10038000AF92BF92CF92DF92EF92FF920F931F93A3
:10039000CF93DF936C017B018B01040F151FEB01E1
:1003A0005E01AE18BF08C017D10759F06991D60198
:1003B000ED91FC910190F081E02DC6010995892B0A
:1003C00079F7C501DF91CF911F910F91FF90EF90C9
:1003D000DF90CF90BF90AF900895FC01538D448D76
:1003E000252F30E0842F90E0821B930B541710F0E0
:1003F000CF96089501970895FC01918D828D9817ED
:1004000061F0A28DAE0FBF2FB11D5D968C91928DC4
:100410009F5F9F73928F90E008958FEF9FEF0895F5
:10042000FC01918D828D981731F0828DE80FF11DBE
:10043000858D90E008958FEF9FEF0895FC01918DD9
:10044000228D892F90E0805C9F4F821B91098F73D2
:100450009927089589E195E00E941E0221E0892BE9
:1004600009F420E0822F089580E090E0892B29F0A4
:100470000E942A0281110C9400000895FC01A48DB1
:10048000A80FB92FB11DA35ABF4F2C91848D90E0B6
:1004900001968F739927848FA689B7892C93A08999
:1004A000B1898C91837080648C93938D848D981323
:1004B00006C00288F389E02D80818F7D80830895B6
:1004C000EF92FF920F931F93CF93DF93EC0181E0A4
:1004D000888F9B8D8C8D98131AC0E889F98980814B
:1004E00085FF15C09FB7F894EE89FF896083E8897E
:1004F000F98980818370806480839FBF81E090E070
:10050000DF91CF911F910F91FF90EF900895F62EFC
:100510000B8D10E00F5F1F4F0F731127E02E8C8D96
:100520008E110CC00FB607FCFACFE889F9898081DB
:1005300085FFF5CFCE010E943E02F1CFEB8DEC0F8F
:10054000FD2FF11DE35AFF4FF0829FB7F8940B8FF8
:10055000EA89FB8980818062CFCFCF93DF93EC0162
:10056000888D8823B9F0AA89BB89E889F9898C919B
:1005700085FD03C0808186FD0DC00FB607FCF7CF57
:100580008C9185FFF2CF808185FFEDCFCE010E9457
:100590003E02E9CFDF91CF910895FC019081905305
:1005A0009A3008F090E0818180532AE0929F800D7C
:1005B00011240895FC01DB0112968D919C911397F3
:1005C0009383828380E291E09183808314968C915F
:1005D0001497848315968C911597858316964D9163
:1005E0005D916D917C9119974683578360877187E0
:1005F0001A964D915D916D917C911D97428753871D
:10060000648775871E964D915D916D917C91519790
:1006100046875787608B718B52968C915297828B4D
:1006200053964D915D916D917C915697438B548B70
:10063000658B768B57964D915D916D917C915A9714
:10064000478B508F618F728F5B968D919C91948FA9
:10065000838F0895DC015996ED91FC913097B9F0A4
:1006600083899489A589B689428553856485758572
:10067000841B950BA60BB70B811520E89207A105EB
:10068000B10538F08FEF9FE7A0E0B0E0089590E06B
:1006900080E00895DC0159968D919C91009739F086
:1006A000DC01ED91FC910480F581E02D099490E04E
:1006B00080E00895CF93DF931F92CDB7DEB76983B3
:1006C000DC01ED91FC910280F381E02D41E050E0EE
:1006D000BE016F5F7F4F09950F90DF91CF91089515
:1006E0008FB7F89480917D028FBF089561E0FC017F
:1006F00084810E942B0180917C02811110927C02E6
:1007000008958EBD00000DB407FEFDCF8EB508958F
:100710008FEF0C9481030F931F93CF93DF93EC0122
:100720000E94B1018B010E9488038F3F69F00E94F3
:10073000B101601B710B6C177D07A8F380E0DF919E
:10074000CF911F910F91089581E0F9CF8CBD9DBD90
:100750000895CF93DF93EC0180917C02811109C051
:1007600081E080937C028091FF05909100060E94B9
:10077000A60360E08C81DF91CF910C942B018F92C6
:100780009F92AF92BF92FF920F931F93CF93DF93ED
:10079000EC01F62E49015A018E81882389F08F8160
:1007A00098859C012F5F3F4F38872F83823092407E
:1007B00018F40E948803F3CFCE010E9476031E82B4
:1007C000CE010E94A9038CE291E00E948B038F2D41
:1007D00080640E94810308E110E0D501C401002E6D
:1007E00004C0B695A795979587950A94D2F70E946D
:1007F000810308501109083F8FEF180771F785E949
:10080000FF2021F028E087E8F2128FEF0E94810399
:1008100010E00E9488038A8787FF04C01F3F11F001
:100820001F5FF7CFDF91CF911F910F91FF90BF9086
:10083000AF909F908F900895AF92BF92CF92DF922A
:10084000EF92FF920F931F93CF93DF93EC01690117
:10085000C801820F931F8130924050F58E8188230A
:1008600079F088819981AA81BB8184179507A607B1
:10087000B70731F48F819885C816D90608F042C0B1
:10088000488359836A837B838B85833039F089E081
:10089000440F551F661F771F8A95D1F79A01AB0148
:1008A00061E1CE010E94BF03882389F083E08D833C
:1008B000CE010E94760380E0DF91CF911F910F91CE
:1008C000FF90EF90DF90CF90BF90AF9008950E947F
:1008D000B1015B010E9488038A878F3F69F40E94FF
:1008E000B1016A197B096D327140A0F38FE08D83ED
:1008F000CE010E947603DCCF8E3F89F418861F82DA
:1009000081E08E838F8198858C159D0550F40E941F
:1009100088038F819885019698878F83F3CF8DE028
:10092000E6CF6701E00EF11E0E948803F601819375
:100930006F01EE15FF05C1F78F819885080F191F0C
:1009400018870F838985882319F001151240A0F0BC
:100950008E81882389F08F8198859C012F5F3F4F7E
:1009600038872F838230924018F40E948803F3CF97
:10097000CE010E9476031E8281E09ECFCF92DF924D
:10098000EF92FF920F93CF93DF93EC01690182E125
:10099000411551056105710599F08B85833039F05A
:1009A00089E0440F551F661F771F8A95D1F79A017A
:1009B000AB0168E1CE010E94BF03882319F084E0F7
:1009C0008D832DC08EEF0E94810376018EEFD81AA1
:1009D000F70181917F010E948103EC14FD04C1F7AE
:1009E0008FEF0E9481038FEF0E9481030E94880392
:1009F0008A878F71853071F4011116C0CE010E9473
:100A0000760381E0DF91CF910F91FF90EF90DF901F
:100A1000CF90089581E18D83CE010E947603CE01AF
:100A20000E94760380E0EECF88E592E00E948B037F
:100A3000811102C085E1C4CF20E030E0A9016DE062
:100A4000CE010E94BF03882311F084E1B9CF0E9438
:100A500088038111FACFD2CF0F9340917F0250913A
:100A600080026091810270918202411551056105F9
:100A7000710599F0082F27E133E0809117059091D7
:100A800018050E94BE04882349F010927F0210923C
:100A90008002109281021092820281E00F910895EB
:100AA0000F93CF93C82F80917E02811105C0C1E0C2
:100AB0008C2FCF910F910895409100015091010129
:100AC00060910201709103010C2F27E133E08091C6
:100AD0001705909118050E94BE04811102C0C0E064
:100AE000E7CFCC2321F381E00E942C058823B9F3C2
:100AF00010927E02DDCF8F929F92AF92BF92EF92C3
:100B0000FF920F931F93CF934B015C01C42F8091F1
:100B1000000190910101A0910201B091030188159B
:100B20009905AA05BB0551F181E00E94500581118C
:100B30000BC080E0CF911F910F91FF90EF90BF907D
:100B4000AF909F908F90089587E1E82E83E0F82E74
:100B500000E012E030E020E0B501A401809117052B
:100B6000909118050E941C04882319F380920001BB
:100B700090920101A0920201B092030140917E0285
:100B80004C2B40937E0281E0D5CF8F929F92AF9203
:100B9000BF92CF92DF92EF92FF92CF9326EB35E098
:100BA0003093180520931705882309F46DC040E0A1
:100BB00060E070E0CB010E947B0581110BC080E0FA
:100BC000CF91FF90EF90DF90CF90BF90AF909F902C
:100BD0008F9008958091D5048F7789F78091E104F3
:100BE0009091E204A091E304B091E404843691056D
:100BF000A105B10520F3C090DD04D090DE04E090A3
:100C0000DF04F090E004C114D104E104F104B9F26E
:100C100040E0C701B6010E947B05882381F28091E4
:100C20002203909123038115924049F6A091270356
:100C3000AA2329F26091250370912603611571059D
:100C400009F4BDCF20912403222309F4B8CFA09347
:100C5000D4052093C60590E080E030E0E1E0F0E0CC
:100C6000C82FAF01082E02C0440F551F0A94E2F7A7
:100C70002417350769F041E0480F01968930910546
:100C800079F74093CF059BCFC12CD12C7601C0CFF3
:100C90008093CF0520912D0330912E0350E040E04A
:100CA0002115310541F420913B0330913C034091E3
:100CB0003D0350913E032093C7053093C8054093F0
:100CC000C9055093CA0546015701860E971EA11CFF
:100CD000B11C8092D5059092D605A092D705B0920E
:100CE000D805E0912803F0912903F093DB05E09308
:100CF000DA05B0E00E943120DC01CB01880D991D9E
:100D0000AA1DBB1D8093DC059093DD05A093DE0535
:100D1000B093DF0525E0EE0FFF1F2A95E1F7E150C4
:100D2000FE4FEF2FFF27E6958E0F9F1FA11DB11DD0
:100D30008093D0059093D105A093D205B093D305AD
:100D400080902A0390902B03B12CA12C8114910444
:100D500041F48090370390903803A0903903B0900D
:100D60003A03C81AD90AEA0AFB0AC80CD91CEA1CB9
:100D7000FB1C04C0F694E794D794C794CA95D2F7A5
:100D8000C092CB05D092CC05E092CD05F092CE0575
:100D900085EFC8168FE0D806E104F10428F48CE052
:100DA0008093D90581E00CCF80E125EFC2162FEFAB
:100DB000D206E104F104A0F380914303909144032F
:100DC000A0914503B09146038093DC059093DD0527
:100DD000A093DE05B093DF0580E2E2CF4F925F92F1
:100DE0006F927F928F929F92AF92BF92CF92DF923B
:100DF000EF92FF920F931F93CF93DF93EC0142305A
:100E000051056105710590F480E0DF91CF911F914C
:100E10000F91FF90EF90DF90CF90BF90AF909F9099
:100E20008F907F906F905F904F90089589859A85FD
:100E3000AB85BC850196A11DB11D84179507A6073A
:100E4000B70710F3CB88DC88ED88FE888F89803166
:100E500009F042C0BB27A72F962F852F48015901C3
:100E60002A013B01C80ED91EEA1EFB1E809100011B
:100E700090910101A0910201B0910301C816D90619
:100E8000EA06FB0699F58F898031C1F5B301A2010D
:100E9000552766277727440F551F495E5C4FFA0197
:100EA0009182808280917E02816080937E028A8915
:100EB000823080F08D819E81AF81B8858C0D9D1D23
:100EC000AE1DBF1D80937F0290938002A09381028C
:100ED000B093820281E099CFDB01CA01E7E0B695C9
:100EE000A79597958795EA95D1F7B8CF40E0C701C8
:100EF000B6010E947B058111C6CF86CFB301A20146
:100F00004F77552766277727440F551F440F551FE6
:100F1000495E5C4FFA0180829182A282B382C2CF85
:100F20008F929F92AF92BF92CF92DF92EF92FF92F9
:100F30000F931F93CF93DF93FC0181859285A38547
:100F4000B4850196A11DB11D84179507A607B707A3
:100F500070F480E0DF91CF911F910F91FF90EF909F
:100F6000DF90CF90BF90AF909F908F90089583882F
:100F70009488A588B6888789803189F5BB27A72FF3
:100F8000962F852FE9016A017B018F01BC01CD01FC
:100F9000680D791D8A1D9B1D8090000190900101B4
:100FA000A0900201B090030186169706A806B90624
:100FB00001F5F8018789803111F5DD24EE24FF2445
:100FC000F601EE0FFF1FE95EFC4F80819181B0E0DA
:100FD000A0E088839983AA83BB8381E0BBCFDB0138
:100FE000CA01C7E0B695A79597958795CA95D1F799
:100FF000C9CF40E00E947B058111DBCFAACFE894E6
:10100000C7F8DD24EE24FF24F601EE0FFF1FEE0FDC
:10101000FF1FE95EFC4F80819181A281B381BF7087
:10102000D8CF4F925F926F927F92AF92BF92CF9242
:10103000DF92EF92FF920F931F93CF93DF9300D035
:1010400000D0CDB7DEB78C0149835A836B837C8394
:101050005901C12CD12C7601412C82E0582E612CF3
:10106000712C49815A816B817C819E012F5F3F4F9A
:10107000C8010E949007882339F1F8018585A301F2
:10108000920104C0220F331F441F551F8A95D2F7C7
:10109000DA01C901C80ED91EEA1EFB1E49815A8118
:1010A0006B817C818789803111F188EF9FEFAFEFF1
:1010B000BFE0481759076A077B0798F2F501C0821D
:1010C000D182E282F38281E00F900F900F900F9017
:1010D000DF91CF911F910F91FF90EF90DF90CF9014
:1010E000BF90AF907F906F905F904F90089588EF82
:1010F0009FEFA0E0B0E0DDCFCF93DF93FC0125812F
:10110000222321F080E0DF91CF910895EC018091BE
:10111000D905803159F582E08583178A108E118EAA
:10112000128E8091DA059091DB05B0E0A0E025E019
:10113000880F991FAA1FBB1F2A95D1F7838B948B09
:10114000A58BB68B82EC95E09C8F8B8F81E08C8396
:101150001E821F82188619861A861B861C861D868B
:101160001E861F86188A198A1A8ACDCF803251F6B8
:1011700083E085834091DC055091DD056091DE05BB
:101180007091DF05478B508F618F728F9F012D5EAD
:101190003F4F82EC95E00E9411088111D3CFB2CF6E
:1011A0008F929F92AF92BF92CF92DF92EF92FF9277
:1011B0000F931F93CF93DF93EC018D8181110EC0AC
:1011C00080E0DF91CF911F910F91FF90EF90DF9022
:1011D000CF90BF90AF909F908F9008950B891C89FE
:1011E0002D893E89041715072607370748F34A015A
:1011F0005B01823031F48A869B86AC86BD8681E0B5
:10120000E0CF81149104A104B10449F41E821F822D
:10121000188619861A861B861C861D86F0CF0A85BD
:101220001B852C853D85EB8DFC8D858590E0099691
:10123000B901A8014150510961097109082E04C082
:1012400076956795579547950A94D2F7750164018D
:10125000E1E0CE1AD108E108F10804C0F694E79461
:10126000D794C7948A95D2F7C416D506E606F70632
:1012700020F0012B022B032B11F58F89988DA98D5E
:10128000BA8D8E839F83A887B9878E010A5F1F4F0F
:10129000C114D104E104F10409F4ADCF4E815F81A2
:1012A0006885798598018B8D9C8D0E94900791E0CF
:1012B000C91AD108E108F1088111EACF81CFC41A17
:1012C000D50AE60AF70AE1CF3F924F925F926F92FA
:1012D0007F928F929F92AF92BF92CF92DF92EF92C6
:1012E000FF920F931F93CF93DF93CDB7DEB72C9769
:1012F0000FB6F894DEBF0FBECDBF5C01DC015B967C
:101300008D909C905C9716964D905D906D907C9022
:101310001997411451046104710409F468C0BFEFC6
:101320004B1A5B0A6B0A7B0A312CF401818592858A
:10133000A385B4859C01AD012F5F3F4F4F4F5F4F99
:1013400029873A874B875C87730162011D821E8261
:101350001F821886F40181859285A385B4852D812D
:101360003E814F815885281739074A075B0708F0E7
:1013700056C089859A85AB85BC858C159D05AE05C3
:10138000BF0550F482E0C82ED12CE12CF12C92E064
:10139000492E512C612C712C9E012F5F3F4FB701BC
:1013A000A601C4010E9490078823C9F189819A810E
:1013B000AB81BC81892B8A2B8B2B09F1260137014C
:1013C0009FEF491A590A690A790A2D813E814F8196
:1013D00058852F5F3F4F4F4F5F4F2D833E834F8385
:1013E00058873FEFC31AD30AE30AF30AB3CFF401D5
:1013F00040805180628073803324339496CFC4142C
:10140000D504E604F70409F70FEF1FEF2FEF3FE0D5
:10141000B701A601C4010E94EE06811119C080E047
:101420002C960FB6F894DEBF0FBECDBFDF91CF91E3
:101430001F910F91FF90EF90DF90CF90BF90AF90F2
:101440009F908F907F906F905F904F903F90089506
:10145000D50116964D915D916D917C91199741152D
:1014600051056105710539F097018601C4010E949B
:10147000EE068823A1F2D5011696CD92DD92ED926B
:10148000FC921997332051F0D701C6010196A11D96
:10149000B11DF40180839183A283B383F501878911
:1014A000908DA18DB28D892B8A2B8B2B39F4848161
:1014B000C78AD08EE18EF28E80688483F5018481A4
:1014C0008062848381E0ACCF2F923F924F925F92F3
:1014D0006F927F928F929F92AF92BF92CF92DF9244
:1014E000EF92FF920F931F93CF93DF9300D01F9241
:1014F000CDB7DEB7FC018581811118C08FEF9FEF5A
:101500000F900F900F90DF91CF911F910F91FF904F
:10151000EF90DF90CF90BF90AF909F908F907F9093
:101520006F905F904F903F902F900895848180FF3F
:10153000E5CF438954896589768982859385A48519
:10154000B585312C212C481759076A077B0719F0FC
:1015500022242394312C6F012101CE0101963C01FC
:10156000DF011696BB83AA834114510409F4C5C058
:10157000F60142855385648575854A01F1E09F2215
:10158000D6015B968D919C915C978A019B01E9E065
:101590003695279517950795EA95D1F71596EC910D
:1015A000E230E9F5FC01628D738D848D958D600FBD
:1015B000711F821F931FA12C22E0B22EA818B90818
:1015C0004A145B0408F45201F601248126FD04C08C
:1015D000A114F2E0BF0671F4009100011091010125
:1015E00020910201309103010617170728073907D8
:1015F00009F05EC040E00E947B05882309F47ECF9D
:10160000C401895E9C4FD3019C012A0D3B1DFC0146
:101610002E173F0709F46CC041914D93F9CFDC01BF
:101620001496BC90BA94B0228114910479F4B1104C
:101630000DC0452B462B472B69F5F6018789908D08
:10164000A18DB28D86839783A087B187D6015B96E3
:10165000ED91FC915C9716966D917D918D919C9189
:1016600019976250710981099109258504C0660F97
:10167000771F881F991F2A95D2F70685178520891D
:101680003189600F711F821F931F6B0D711D811DAA
:10169000911D91CFD60116964D915D916D917C91E2
:1016A00019972A813B810E9490078111CFCF26CFC5
:1016B000730185019401AB01BC01809117059091E4
:1016C00018050E941C04882309F418CF6A0C7B1C9F
:1016D000F60182859385A485B5858A0D9B1DA11D84
:1016E000B11D82879387A487B5874A185B083CCFD2
:1016F000281B390B620E731EEBCF2A94232809F0A6
:10170000FDCE898190E0FCCEFC01818D928D009709
:1017100011F00C94640A8FEF9FEF08950F931F93BD
:10172000CF93DF93EC01898D9A8D10E000E0009754
:1017300099F00E94640A8C010F3F100769F0898DAF
:101740009A8DFC0142855385648575854150510908
:10175000610971090E94D008C801DF91CF911F91E2
:101760000F9108951F93CF93DF93FC0125812223CE
:10177000D1F1162FEC01848187FF2AC06685778519
:101780008089918941E00E947B05882361F1EA8983
:1017900080E2E89FF0011124E95EFC4F309719F1D7
:1017A0008D81823040F48B899C89AD89BE89848F7C
:1017B000958FA68FB78F8F89988D938F828F8F8902
:1017C000988DA98DBA8DB58BA48B8C818F778C83E6
:1017D000111103C08C818F7E8C83812FDF91CF917B
:1017E0001F910C94500580E0DF91CF911F910895D7
:1017F000FC01818D928D009719F061E00C94B20B81
:101800000895FF920F931F93CF93DF93EC018D8187
:10181000813041F090E080E0DF91CF911F910F91F6
:10182000FF9008958C8181FFF5CF82FD1BC0009150
:10183000170510911805C8010E94A9030E9488038A
:10184000F82EC8010E9476038FEFF812E3CF8C8147
:1018500085FF1BC060E0CE010E94B20B8C818F7DA2
:101860008C83D8CF4B895C896D897E898A859B85DD
:10187000AC85BD8584179507A607B707C1F2CE01D1
:101880000E94D0088111D3CFC5CF40917F025091E3
:1018900080026091810270918202452B462B472B7A
:1018A00021F080E00E942C05B5CF80618C832A85D1
:1018B0003B85317080E092E0821B930BADCFCF93DC
:1018C000DF93EC0161E00E94B20B882311F01D82CE
:1018D00081E0DF91CF9108952F923F924F925F92D6
:1018E0006F927F928F929F92AF92BF92CF92DF9230
:1018F000EF92FF920F931F93CF93DF9300D000D00E
:101900001F92CDB7DEB77C015B01342E5D83DC0115
:1019100015968C911597813009F0CEC014962C90B5
:1019200021FECAC022FCB4C0C32CDD8022947FE01B
:1019300027222094B22DB1702B2ED7011A964D91EB
:101940005D916D917C911D97C114D10409F428C15A
:101950005B968D919C915C97FC0174807A948A01CE
:101960009B0169E036952795179507956A95D1F7FC
:1019700070228A011170711020C001151105E9F45F
:1019800016964D915D916D917C9119974115510578
:101990006105710509F099C057968D919D910D9043
:1019A000BC91A02D0097A105B10509F0B0C0C701F9
:1019B0000E946409882309F47FC080E092E0801BC4
:1019C000910B46018C159D0508F44C01D7015B96DF
:1019D0004D915C915C9716968D919D910D90BC9167
:1019E000A02D0297A109B109FA01258504C0880F2D
:1019F000991FAA1FBB1F2A95D2F746855785608974
:101A00007189840F951FA61FB71F9C01AD01270D7B
:101A1000311D411D511D29013A01811432E0930607
:101A200009F07BC08091000190910101A091020119
:101A3000B091030184159505A605B70559F48FEFFC
:101A40009FEFDC018093000190930101A0930201BC
:101A5000B0930301022D9501B301A20180911705F6
:101A6000909118050E94BE04882331F19EEFB91AA7
:101A7000C818D908F70182859385A485B585880D96
:101A8000991DA11DB11D82879387A487B58755CF66
:101A9000F701438954896589768982859385A48570
:101AA000B585481759076A077B0709F43DCFC70179
:101AB0000E94D008811138CF81E090E0D7011396C1
:101AC0009C938E93129780E007C09E012F5F3F4F3B
:101AD0000E949007811102C090E079C089819A81AB
:101AE000AB81BC81F701238D348DF901278948EF43
:101AF0005FEF60E070E0203121F048EF5FEF6FEFC3
:101B00007FE084179507A607B70708F050CFF701C5
:101B100086839783A087B18750CF0115110599F56A
:101B2000D7011A964D915D916D917C911D975396B9
:101B30008D919D910D90BC91A02D481759076A0772
:101B40007B0708F181E00E945005882309F4B4CF97
:101B500040920001509201016092020170920301D3
:101B600080917E02816080937E02C801895E9C4FD5
:101B7000D5019C01280D391DFC012E173F0759F096
:101B80004D914193FACF41E0C301B2010E947B0520
:101B90008111EBCF91CF281B390BA20EB31E68CF5A
:101BA000F70183899489A589B68984179507A607C3
:101BB000B70738F48481438B548B658B768B8068B0
:101BC0008483F701848183FD1AC0832D9D810F904A
:101BD0000F900F900F900F90DF91CF911F910F9169
:101BE000FF90EF90DF90CF90BF90AF909F908F903D
:101BF0007F906F905F904F903F902F90089561E09D
:101C0000C7010E94B20B882309F456CFDECFCF93D1
:101C1000DF93EC01E98DFA8D309749F481E090E093
:101C20009B838A8390E080E0DF91CF9108951382B7
:101C30001282898D9A8D0E946C0CE98DFA8D228119
:101C40003381232B59F7F0CFCF93DF931F92CDB77A
:101C5000DEB7698341E050E0BE016F5F7F4F0E94B5
:101C60006C0C0F90DF91CF9108950895E091880258
:101C700080918702E81730F4F0E0E955FD4F80814C
:101C800090E008958FEF9FEF0895909188028091E2
:101C900087022FEF3FEF981748F4E92FF0E0E9555E
:101CA000FD4F208130E09F5F90938802C901089525
:101CB0008091870290918802891B990B089590E08A
:101CC00080E0089520915902260F3327331F2132D7
:101CD0003105ECF42091ED02FC0190E080E024302D
:101CE00069F082E00895A09159022191AC01475C0E
:101CF0005D4FA40FB52FB11D2C930196861798F355
:101D000080915902680F6093590280E0089581E044
:101D10000895CF92DF92EF92FF920F931F93CF938C
:101D2000DF937C01CB018A012091F302222389F009
:101D3000EB016B01C40ED51ECC15DD0569F0699170
:101D4000D701ED91FC910190F081E02DC70109953B
:101D5000F3CF642F0E94620EC801DF91CF911F91D3
:101D60000F91FF90EF90DF90CF900895CF93DF9386
:101D70001F92CDB7DEB769832091F3022223F9F0D9
:101D800020911603203258F021E030E0FC0133832B
:101D9000228390E080E00F90DF91CF9108958091B1
:101DA000F402E82FF0E0EB50FD4F998190838F5FB4
:101DB0008093F4028093160381E090E0ECCF61E021
:101DC000CE0101960E94620EF7CF1092ED0281E0E3
:101DD0008093EC021092C70261E082E10E942B0125
:101DE00061E083E10E942B01E9EBF0E080818E7FCE
:101DF000808380818D7F808388E48093B80085E430
:101E00008093BC000895CF93DF9391E090933802C4
:101E10008823B9F0C091B800D091BA008091BC007D
:101E20008A7B8093BC0060E082E10E942B0160E02D
:101E300083E10E942B010E94E50ED093BA00C0936B
:101E4000B800DF91CF9108958F929F92AF92BF9289
:101E5000CF92DF92EF92FF920F931F93CF93DF9376
:101E6000D0911603D13208F0D7C0182FC0911503B6
:101E70000E948C016B017C018091ED0281116BC08D
:101E800082E08093ED021093EC028FEF8093EB02DF
:101E90001092EA02D093E902A5EFB2E0E9ECF2E099
:101EA00080E0D81391C01092C8028091C802CC0F74
:101EB000C82BC093C8028091C702813009F088C046
:101EC0001092C7020E948C016B017C018091C802B4
:101ED0008093BB008091EF029091F002A091F102FB
:101EE000B091F202892B8A2B8B2BA1F00E948C01DE
:101EF0000091EF021091F0022091F1023091F20274
:101F00006C197D098E099F090617170728073907DD
:101F100008F442C08091BC0083FDD8CF85EC80934B
:101F2000BC000E948C016B017C018091ED0282302B
:101F300009F450C08091EB028F3F09F46FC080918B
:101F4000EB02803209F46CC08091EB02803309F41B
:101F500069C084E026C08091EF029091F002A091C8
:101F6000F102B091F202892B8A2B8B2B09F484CFDA
:101F70000E948C018090EF029090F002A090F102FC
:101F8000B090F2026C197D098E099F09861697069A
:101F9000A806B90608F070CF8091EE020E94030FE8
:101FA00085E01092F402109216031092F302DF9172
:101FB000CF911F910F91FF90EF90DF90CF90BF9046
:101FC000AF909F908F9008959D9191938F5F69CF6F
:101FD00085EEA5CF8091EF029091F002A091F102E1
:101FE000B091F202892B8A2B8B2B09F49ECF0E9491
:101FF0008C010091EF021091F0022091F1023091DA
:10200000F2026C197D098E099F0906171707280728
:10201000390708F08ACFC0CF81E0C3CF80E0C1CFBD
:1020200082E0BFCF83E0BDCFCF92DF92EF92FF92ED
:102030000F931F93CF93DF93D82FC62F613208F0F1
:1020400098C00E948C016B017C018091ED0281118E
:102050006BC081E08093ED028093EC029FEF909340
:10206000EB021092EA029C0F9093E9028093C8025F
:102070008091C802DD0FD82BD093C8028091C7028F
:10208000813009F078C01092C7020E948C016B0168
:102090007C018091C8028093BB008091EF029091F7
:1020A000F002A091F102B091F202892B8A2B8B2BC6
:1020B000A1F00E948C010091EF021091F00220919A
:1020C000F1023091F2026C197D098E099F09061701
:1020D00017072807390708F448C08091BC0083FD22
:1020E000D8CF85EC8093BC000E948C016B017C01F1
:1020F0008091ED02813009F440C08091EA028C1792
:1021000010F4C091EA02E9ECF2E0A7EAB2E080E064
:102110008C1355C08C2FDF91CF911F910F91FF90A1
:10212000EF90DF90CF9008958091EF029091F002B0
:10213000A091F102B091F202892B8A2B8B2B09F42A
:1021400084CF0E948C010091EF021091F002209147
:10215000F1023091F2026C197D098E099F09061770
:1021600017072807390708F070CF8091EE020E9408
:10217000030FC0E0CFCF85EEB5CF8091EF029091F5
:10218000F002A091F102B091F202892B8A2B8B2BE5
:1021900009F4AECF0E948C010091EF021091F00281
:1021A0002091F1023091F2026C197D098E099F098C
:1021B000061717072807390708F09ACFD6CF91914D
:1021C0009D938F5FA5CFFB0101900020E9F7319728
:1021D000AF01461B570BDC01ED91FC910280F381AE
:1021E000E02D0994CF93DF93BC0189E195E00E9433
:1021F000E310EC016CE471E089E195E00E94E310EA
:102200008C0F9D1FDF91CF9108950F931F93CF9354
:10221000DF93EC01FB014481558160817181E8818C
:10222000F9810280F381E02D09958C016CE471E065
:10223000CE010E94E310800F911FDF91CF911F917B
:102240000F910895FC0180819181009711F00C9409
:1022500030210895CF92DF92FF920F931F93CF9377
:10226000DF936C0181E08093F30288E6809315038D
:102270001092F4021092160360E081E096E00E9452
:10228000B60E81E00E94240F67E088E60E941410D9
:10229000109288028093870281E096E00E94450EAA
:1022A0008F77282F30E094E0359527959A95E1F7C0
:1022B000922F990F990FC22FC91BCC0FC80F81E025
:1022C00096E00E94450E9C0144E0359527954A957D
:1022D000E1F72F703327922F990F990FD22FD91B27
:1022E000DD0FD80F81E096E00E94450E9C0154E07E
:1022F000359527955A95E1F72F703327922F990F2F
:10230000990F122F191B110F180F81E096E00E94F0
:10231000450E81E096E00E94450E9C0164E03595F3
:1023200027956A95E1F72F703327922F990F990F10
:10233000022F091B000F080F81E096E00E94450E56
:102340009C0174E0359527957A95E1F72F70332736
:10235000922F990F990FF22EF91AFF0CF80E81E0C7
:1023600096E00E94450E9C01E4E035952795EA959C
:10237000E1F72F703327922F990F990F291B220F06
:10238000820FF6018083F18202831383D483C58395
:10239000C601DF91CF911F910F91FF90DF90CF90F9
:1023A0000895CF92DF92EF92FF921F93CF93DF9326
:1023B000EC0180E2689FF0011124E95EFC4F9385F7
:1023C000917161F0842F827449F080E0DF91CF91A8
:1023D0001F91FF90EF90DF90CF900895142F6A8B9C
:1023E0008091000190910101A0910201B09103013F
:1023F0008E879F87A88BB98BC488D588F12CE12C58
:102400007601DD24CC24CF8AD88EE98EFA8E828D97
:10241000938DB0E0A0E0AC01BD014C295D296E298F
:102420007F294F8B588F698F7A8F83858871B1F49C
:10243000848D958DA68DB78D8B8B9C8BAD8BBE8B34
:1024400081E08D831F701C831E821F82188619866F
:102450001A861B861C861D8681E0B8CF803109F064
:10246000B4CF9E012D5E3F4F8B8D9C8D0E94110835
:10247000882309F4AACF84E0E4CF0F931F93CF936E
:10248000DF93EC0188819981009759F02A813B8183
:102490002617370730F081E0DF91CF911F910F9120
:1024A00008958B016F5F7F4F0E94B921009759F00B
:1024B000998388831B830A832C813D81232B59F7C1
:1024C000FC011082E8CF80E0E7CF0F931F93CF93FA
:1024D000DF93EC010C811D810D5F1F4FB8010E943D
:1024E0003D12882369F0288139818C819D816FE4B8
:1024F00071E0820F931F0E9497221D830C8381E05D
:10250000DF91CF911F910F910895EF92FF920F935A
:102510001F93CF93DF93FB01E080F180E114F1047E
:1025200041F480E0DF91CF911F910F91FF90EF90E8
:1025300008950481158101151105B1F0EC018C811C
:102540009D81080F191FB801CE010E943D128823FA
:1025500041F3288139818C819D81B701820F931FBE
:102560000E9497221D830C8381E0DCCFEF92FF92C3
:102570000F931F93CF93DF93EC017B018A01BA0184
:102580000E943D1228813981811114C02115310525
:1025900019F0C9010E943021198218821D821C8203
:1025A0001B821A82CE01DF91CF911F910F91FF9074
:1025B000EF9008951D830C83B701C9010E949722F3
:1025C000F1CFEF92FF920F931F93CF93DF93CDB78D
:1025D000DEB7A1970FB6F894DEBF0FBECDBF7C016A
:1025E000CB01BA01F7011182108213821282158287
:1025F00014828E010F5F1F4F22E044E00E94AC1C4A
:102600000097C9F0FC0101900020E9F73197AF0174
:10261000481B590BBC01C7010E94B612A1960FB608
:10262000F894DEBF0FBECDBFDF91CF911F910F9108
:10263000FF90EF900895F70180819181009711F04C
:102640000E943021F70111821082158214821382B8
:102650001282E4CFEF92FF920F931F93CF93DF93F9
:10266000CDB7DEB762970FB6F894DEBF0FBECDBF11
:102670008C01CB01F8011182108213821282158223
:1026800014824AE09E012F5F3F4F7901B9010E94F9
:10269000CA1CF70101900020E9F73197AF014E19EC
:1026A0005F09B701C8010E94B61262960FB6F8948E
:1026B000DEBF0FBECDBFDF91CF911F910F91FF9075
:1026C000EF900895FC01118210821382128215820C
:1026D0001482FB0101900020E9F73197AF01461BFE
:1026E000570B0C94B612EF92FF920F931F93CF9358
:1026F000DF93EC017B018A011B821A8288EE93E052
:10270000A0E0B0E08C839D83AE83BF838EE391E035
:10271000998388838DE190E00E9494209A8F898F1D
:10272000009779F02DE1F701DC0101900D922A95D7
:10273000E1F74CE050E0B801CE010C960E949E22D9
:10274000188EDF91CF911F910F91FF90EF90089518
:102750003F924F925F926F927F928F929F92AF9231
:10276000BF92CF92DF92EF92FF920F931F93CF937E
:10277000DF93CDB7DEB72B970FB6F894DEBF0FBE51
:10278000CDBF7C01FE013196CE010C966F0130E287
:102790003193E817F907E1F7DA0130E087E09D911E
:1027A000B92E992309F43CC09E32F1F48A30C9F461
:1027B00080E02B960FB6F894DEBF0FBECDBFDF9141
:1027C000CF911F910F91FF90EF90DF90CF90BF902E
:1027D000AF909F908F907F906F905F904F903F90C1
:1027E000089538E08AE0DBCFE2E6F1E0449144234B
:1027F00021F031969413FACFDBCF8317C8F24FED57
:10280000490F4E35A8F64FE9490F4A3118F440EE0A
:10281000B42EB90EF601E30FF11DB0823F5FBFCFBA
:102820008981803229F2322E8B01DB015B968D91FA
:102830009C915C97F701948F838F16961D921D9241
:102840001D921C921997FB01128613861486158619
:10285000F80182859385A485B58543895489658966
:10286000768984179507A607B70708F04DC025E0BD
:10287000B695A795979587952A95D1F7F82FFF706C
:10288000AF2ED80115968C91823008F491CFC801F3
:102890000E94640A97FD8CCFF80182859385A485F8
:1028A000B5854F96A11DB11D82879387A487B587F3
:1028B000F0E2AF9EB0011124695E7C4F6115710595
:1028C00009F476CFDB018C91882341F0853E09F035
:1028D00062C0BB2029F0BB24B394BACFB1100EC0A4
:1028E000F701A28A8091000190910101A09102015B
:1028F000B091030186879787A08BB18BDB018C9108
:102900008111E9CFBB24B394832D8271823109F008
:102910004FCFBB2009F44DC0F701668577858089CC
:10292000918941E00E947B05882309F441CFD701BA
:1029300052968C91B0E28B9FC0011124895E9C4F0E
:10294000009709F435CFFC013A9626E1DF011D928C
:102950002A95E9F72BE0F601DC0101900D922A950A
:10296000E1F721E238E2FC01318B208B40E058E0B6
:1029700057874687338B228B318F208F578B468B1F
:1029800081E00E945005882309F412CF432DD7011E
:1029900052966C910AC04BE050E0C6010E9476222C
:1029A000892B09F055CF432D6A2DC7010E94D11103
:1029B00000CFF8018581823009F4FACEC8010E9467
:1029C0006409882309F4F4CED8015B96ED91FC915B
:1029D0005C9716968D909D90AD90BC901997B2E043
:1029E0008B1A9108A108B108858504C0880C991C30
:1029F000AA1CBB1C8A95D2F786859785A089B189C8
:102A0000880E991EAA1EBB1E848124013501480E22
:102A1000511C611C711C84149504A604B70409F1AF
:102A2000E1E04E1A51086108710881E00E945005EA
:102A3000882309F4BDCEE7E1F3E0119287E195E048
:102A40008E179F07D1F740920001509201016092CA
:102A500002017092030180917E02816080937E0268
:102A6000DACFD8015B96ED91FC91258580E092E06C
:102A7000A0E0B0E004C0880F991FAA1FBB1F2A95D1
:102A8000D2F7F8014389548965897689840F951FA7
:102A9000A61FB71F838B948BA58BB68BD70152963D
:102AA0001C9287E193E04FCF85ED8093BC0080912D
:102AB000EF029091F002A091F102B091F20207961C
:102AC000A11DB11D23E0B695A795979587952A95E9
:102AD000D1F72091BC0024FD03C01092ED020895AF
:102AE0004091EF025091F0026091F1027091F20278
:102AF000452B462B472B69F30097A105B10541F003
:102B00002AE22A95F1F700C00197A109B109E1CFA6
:102B10008091EE020C94030F1F920F920FB60F924A
:102B200011242F933F938F939F93AF93BF938091E3
:102B30009F029091A002A091A102B091A2023091B7
:102B40009E0223E0230F2D3758F50196A11DB11DDC
:102B500020939E0280939F029093A002A093A102D3
:102B6000B093A2028091A3029091A402A091A50229
:102B7000B091A6020196A11DB11D8093A30290936E
:102B8000A402A093A502B093A602BF91AF919F911A
:102B90008F913F912F910F900FBE0F901F9018951E
:102BA00026E8230F0296A11DB11DD2CF1F920F92CE
:102BB0000FB60F9211242F933F934F935F936F9310
:102BC0007F938F939F93AF93BF93EF93FF9389E18D
:102BD00095E00E943E02FF91EF91BF91AF919F91CE
:102BE0008F917F916F915F914F913F912F910F90B6
:102BF0000FBE0F901F9018951F920F920FB60F9255
:102C000011242F938F939F93EF93FF93E0912905C6
:102C1000F0912A058081E0912F05F091300582FD29
:102C20001BC09081809132058F5F8F732091330597
:102C3000821741F0E0913205F0E0E75EFA4F958FA0
:102C400080933205FF91EF919F918F912F910F907B
:102C50000FBE0F901F9018958081F4CF1F920F9296
:102C60000FB60F9211242F933F934F935F936F935F
:102C70007F938F939F93AF93BF93EF93FF93809135
:102C8000B900887F803609F44AC0F0F5883209F42B
:102C9000A7C018F5803109F49BC0B8F4882309F463
:102CA000F9C0883009F494C0FF91EF91BF91AF91C2
:102CB0009F918F917F916F915F914F913F912F9154
:102CC0000F900FBE0F901F901895883109F488C09F
:102CD000803251F78093EB0214C0803409F49DC018
:102CE00040F48033B9F38833F9F68093EB0285EC36
:102CF000B0C0803509F485C0883509F496C08834A1
:102D000099F60E945415D0CF883909F48CC038F553
:102D1000883729F050F4883611F0803729F683E09F
:102D20008093ED0210927B0257C0883809F47BC073
:102D3000803919F0803809F0B7CF80917B0280325A
:102D400008F071C0E0917B0281E08E0F80937B02DE
:102D50008091BB00F0E0E55AFD4F80833DC0803B91
:102D600039F0E0F4803A09F479C0883A09F09CCF50
:102D700084E08093ED0210925A0210925902E09181
:102D80008502F091860209958091590281110FC048
:102D900081E0809359021092390209C0803C09F405
:102DA000A6CF883C09F4A3CF883B09F07DCFE09102
:102DB0005A0281E08E0F80935A02F0E0E75CFD4FEB
:102DC00080818093BB0090915A028091590229C062
:102DD0008091C8028093BB0085EC8093BC0064CFD7
:102DE0009091EA028091E902981758F5E091EA0281
:102DF00081E08E0F8093EA02F0E0E753FD4F80817F
:102E0000E9CFE091EA0281E08E0F8093EA0280919F
:102E1000BB00F0E0E753FD4F80839091EA02809180
:102E2000E9029817C8F285E8D8CFE091EA0281E07C
:102E30008E0F8093EA028091BB00F0E0E753FD4FD4
:102E400080838091EC0281115CCF81E08093C70286
:102E500084EA8093BC001092ED0226CF85EC80932B
:102E6000BC001092ED0280917B02803230F4E09140
:102E70007B02F0E0E55AFD4F108260917B0270E02A
:102E8000E0918302F09184028BE592E00995109223
:102E90007B020ACF1092EB0234CFE9E1F5E0138216
:102EA000128288EE93E0A0E0B0E084839583A6834D
:102EB000B7832EE031E03183208325EC30E0358785
:102EC000248724EC30E03787268720EC30E0318BF4
:102ED000208B21EC30E0338B228B22EC30E0358BE1
:102EE000248B26EC30E0378B268B118E128E138EBE
:102EF000148EE6EBF5E0158216821186138642E009
:102F000050E060E070E0448755876687778713A2BA
:102F100015A614A620E231E033A722A717A6EFEFEB
:102F2000F5E020E520831182E1E0F6E013821282D1
:102F300084839583A683B7832CE231E03183208399
:102F40002EE020937B062FE02093660620E120935D
:102F5000510621E120933C06EDE0F6E01382128257
:102F600084839583A683B7838EE391E091838083E6
:102F7000128E118E14860895CF93DF93CDB7DEB7EE
:102F8000C658D1090FB6F894DEBF0FBECDBF7894F6
:102F900084B5826084BD84B5816084BD85B582605E
:102FA00085BD85B5816085BD80916E00816080930F
:102FB0006E00109281008091810082608093810078
:102FC0008091810081608093810080918000816088
:102FD000809380008091B10084608093B1008091E3
:102FE000B00081608093B00080917A00846080930B
:102FF0007A0080917A00826080937A0080917A00D2
:10300000816080937A0080917A00806880937A0052
:103010001092C10063E571E087E696E00E94972276
:103020006EE571E082E596E00E949722E091290525
:10303000F0912A0582E08083E0912505F091260534
:103040001082E0912705F09128058FEC8083109283
:103050003105E0912D05F0912E0586E08083E09109
:103060002B05F0912C05808180618083E0912B05F8
:10307000F0912C05808188608083E0912B05F09190
:103080002C05808180688083E0912B05F0912C05D0
:1030900080818F7D80831092880210928702109227
:1030A000F402109216030E94E50E8DEB91E09093CE
:1030B0008602809385028EEB91E090938402809348
:1030C000830289E691E00E94F210BB24B394B0928F
:1030D000F30208E6009315031092F402109216030F
:1030E00060E081E096E00E94B60E81E00E94240F2D
:1030F00061E088E60E941410109288028093870293
:1031000081E096E00E94450E87FF04C18AE791E0C6
:103110000E94F21087E991E00E94CD02182F82E907
:1031200091E00E94CD02F82E8AE991E00E94CD0242
:10313000E82E8DE991E00E94CD02D82E80EA91E040
:103140000E94CD02C82EB092F30200931503109294
:10315000F4021092160360E081E096E00E94B60E41
:103160000AE08C2D602F0E948220682F660F680F66
:10317000660F6C0D81E096E00E94B60E8D2D602FDB
:103180000E948220682F660F680F660F6D0D81E028
:1031900096E00E94B60E8E2D602F0E948220682F2E
:1031A000660F680F660F6E0D81E096E00E94B60E06
:1031B00060E081E096E00E94B60E8F2D602F0E94A5
:1031C0008220682F660F680F660F6F0D81E096E012
:1031D0000E94B60E69E081E096E00E94B60E812F53
:1031E000602F0E948220682F660F680F660F610FA4
:1031F00081E096E00E94B60E81E00E94240F67EB0A
:1032000071E089E195E00E94E3108091E505882353
:1032100021F080EE95E00E945F0C1092C1051092A3
:10322000BF051092BC051092BB058AE08093BA05D9
:103230000E94B1018B018091BA050E940C0161E0EE
:103240008091BA050E942B01FFB6F8948091890203
:10325000811124C0E4EAF1E08491E8EBF1E094917B
:10326000E82FF0E0EE0FFF1FE057FE4FA591B4915D
:10327000EC91E92321F461E08AE00E942B018AE0CD
:103280000E940C018CB580618CBD8CB580648CBDB6
:103290008DE00E940C018BE00E940C01809189025C
:1032A0008F5F80938902FFBE82E58093FF051092B5
:1032B00000068091FF05909100060E94A6033AE067
:1032C000F32E8FEF0E948103FA94F110FACF86EB70
:1032D00095E00E94A90320E030E0A90160E086EBC0
:1032E00095E00E94BF03F82E8093C00521E082176D
:1032F000B1F00E94B101601B710B613D774058F342
:1033000081E08093BB0586EB95E00E94760384EE16
:1033100091E081C083EA91E00E94F21070CF2AEA26
:1033200031E040E050E068E086EB95E00E94BF03AA
:1033300082FF2AC0F092C1058091C105C12CD12C19
:103340007601823029F4C12CD12CE12C90E4F92EA5
:1033500020E030E0A90167E386EB95E00E94BF031F
:10336000A701960169E286EB95E00E94BF03809376
:10337000C0058823D1F00E94B101601B710B613D33
:10338000774030F388E0BDCF24E0F22E0E9488031E
:103390008093C005FA94F110F9CF8A3A11F082E0D7
:1033A000B0CF82E08093C105C7CF8091C105823044
:1033B000D1F420E030E0A9016AE386EB95E00E94B9
:1033C000BF03882311F086E09CCF0E948803807C95
:1033D000803C19F483E08093C1050E9488030E9419
:1033E00088030E94880386EB95E00E94760380E5BF
:1033F0008093FF051092000681E00E94C505882396
:1034000009F442C180EE95E00E947C08882309F40B
:103410007ECF8FEC91E00E94F2104E019EE1890E6A
:10342000911CCE0181589F4F0E942A116BEF71E0D1
:10343000CE0187589F4F0E9462136EE471E0CE0167
:103440008D589F4F0E946213CE0101960E942A114F
:103450008E811F928F938D811F928F938C811F92EB
:103460008F938B811F928F938A811F928F93898173
:1034700090E08053984F9F938F93A8E0B2E0BF9362
:10348000AF932AE832E03F932F930E94AD228091C0
:103490007B060E947701BC01990F880B990B0E9453
:1034A000381F2CEE31EC44EA5BE30E94731F2B01C2
:1034B0003C01809166060E947701BC01990F880B40
:1034C000990B0E94381F2CEE31EC44EA5BE30E941A
:1034D000731F6B017C01809151060E9477018C0162
:1034E00080913C060E9477015C016AE872E0CE019F
:1034F00001960E946213E5968EAD9FADE5970FB6DB
:10350000F894DEBF0FBECDBF009709F4C6C0698135
:103510007A816115710509F4BEC0E7964EAD5FADC5
:10352000E7972D813E814217530708F4B4C00E94EB
:1035300097228D819E81E9969FAF8EAFE9971E827B
:103540001D82CE0101960E942211CE018D589F4FFF
:103550000E946512B301A201CE0101960E94E11200
:10356000BE016F5F7F4FCE018D589F4F0E94851225
:10357000CE0101960E942211CE018D589F4F0E94CC
:103580006512B801CE0101960E942A13BE016F5F39
:103590007F4FCE018D589F4F0E948512CE0101961C
:1035A0000E942211CE018D589F4F0E946512B701D3
:1035B000A601CE0101960E94E112BE016F5F7F4F0E
:1035C000CE018D589F4F0E948512CE0101960E9418
:1035D0002211CE018D589F4F0E946512B501CE0178
:1035E00001960E942A13BE016F5F7F4FCE018D5856
:1035F0009F4F0E948512CE0101960E942211BE01AA
:103600006D587F4F89E195E00E940511EF964EAD10
:103610005FADEF97EB966EAD7FADEB9789E195E0EF
:103620000E94C001EB96AEACBFACEB9719A218A2FA
:1036300080E291E09F8F8E8F1BA21C821B829A8357
:1036400089831E82C4010E947C0865018E010F5F80
:103650001F4F14016FE270E0C6010E948C22F60138
:10366000009709F484C020812F3271F5FFEFCF1A43
:10367000DF0A902F812F8101292E382E922D832D44
:103680001801092F182FE6CF80E00E94C505882376
:1036900009F43DCEB7CE0E94302189819A81E5960A
:1036A0009FAF8EAFE5978B819C81E7969FAF8EAFE2
:1036B000E7978D819E81E9969FAF8EAFE9971A8239
:1036C00019821C821B823BCF8C198D3008F08CE054
:1036D000E82EF12CA701B601CE01885A9F4F0E9417
:1036E0009E22E8E5F0E0EC0FFD1FEE0DFF1D1082BD
:1036F000C8010E945F0CD80115968C91882339F17E
:103700001EAE1DAE80E291E09CAF8BAF21961FAE46
:103710002197CB57DF4F28813981C558D040A20E61
:10372000B31ED5018C91811130C0BE01655C7F4F05
:10373000CE0101960E94DA0246E252E0BE016F5FBE
:103740007F4FCE01885A9F4F0E94731345C021E0DE
:10375000AE01485A5F4FB101C8010E94A8138823E7
:1037600079F2CE0CDF1CC1010E945F0C87CFEA19F1
:10377000FB09CB57DF4FF983E883C558D040B1012F
:10378000CE01CB960E94DA02C4CF19A218A280E221
:1037900091E09F8F8E8F1BA221968FAD2197811173
:1037A000B0C06C961FAE1EAE6C9788EE93E0A0E0A2
:1037B000B0E0A0968CAF9DAFAEAFBFAFA0978EE349
:1037C00091E06A969FAF8EAF6A97E3961FAE1EAEEA
:1037D000E397A5961FAEA5976C968EAD9FAD6C979F
:1037E0009093100680930F06A0968CAD9DADAEAD64
:1037F000BFADA0978093110690931206A093130675
:10380000B0931406A4968CAD9DADAEADBFADA4979C
:103810008093150690931606A0931706B09318068A
:10382000A8E5B0E0AC0FBD1F1C96E9E1F6E08D9174
:10383000819396E0E632F907D1F7E396EEADFFAD5E
:10384000E397F0932706E0932606309709F476C0B5
:103850008581882309F472C0BE016D587F4F8DE0C9
:1038600096E00E9405118091260690912706009708
:1038700061F00E945F0C80912606909127060E94BD
:10388000302110922706109226060E948C012B01EF
:103890003C0180EAC82E8FE0D82EE12CF12C0E944A
:1038A0008C016419750986099709683E7340810582
:1038B0009105A8F3A1E0CA1AD108E108F108B8EE11
:1038C0004B0EB3E05B1E611C711CC114D104E104FA
:1038D000F10429F7CE018D589F4F0E942211CE018D
:1038E00087589F4F0E94221180E090E0892B09F4B5
:1038F00098CD0E942A02882309F493CD0E940000EB
:1039000090CD27E1A501BE01655C7F4FC4010E94F7
:10391000A813882309F445CFCE01CB960E945F0CF3
:1039200049A95AA96BA97CA9C4010E94D008B40175
:10393000CE0101960E94DA02A50100CF68E272E092
:1039400089E195E00E94E310BE0167587F4F89E14D
:1039500095E00E94051199CFEF920F931F93CF939B
:10396000DF93E80134E047FD34E1042E000C550BF1
:1039700057FF03C0519541955109E32E022F242F83
:10398000AE010E94EF1CCE01DF91CF911F910F91EC
:10399000EF900895BB274A3031F4992322F4BDE219
:1039A000909581959F4F0C94D61CBB27FB01552702
:1039B000AA27880F991FAA1FA41710F0A41B83958C
:1039C0005051B9F7A05DAA3308F0A95DA193009703
:1039D00079F7B111B1931192CB010C94261FA9E094
:1039E000B0E0E5EFFCE10C9442206A01F22EB02E2B
:1039F000102FFBE3AF2EA01608F41BE31F5F012F6F
:103A000027E0AE014F5F5F4F0E944E1EBC018981CF
:103A1000982F9970913009F43FC09BE2E1FC04C0FB
:103A20009E2D9170E0FC3AC05E2D5071E82FE87039
:103A300083FF46C084E0911101C083E0EF2DE81BB5
:103A40008F1508F0E0E0D6018E2F20E2552351F1CA
:103A5000992329F0D6019C93C60101966C01960129
:103A60002D5F3F4FE2FE24C08EE4D6018C9391E49B
:103A700011969C93119712968C93D9018E2F90E2F8
:103A800081111BC0E20FF32FF11D10828EEF9FEF0B
:103A90002996ECE00C945E209DE2C6CF90E2C4CF64
:103AA0002D9381508111FCCFCE0ED11CE0E0D0CF00
:103AB0008EE6D6018C9391E6DBCF9D938150E0CFCB
:103AC000482F447082FF3DC084E0911101C083E023
:103AD0008F1510F4EF2DE81BD6018E2F20E2552311
:103AE00009F1992329F0D6019C93C60101966C0136
:103AF00096012D5F3F4FE2FE1BC089E4D6018C93F7
:103B00008EE411968C93119786E412968C93D901CA
:103B10008E2F90E2882309F4B5CF9D938150FACF80
:103B20002D9381508111FCCFCE0ED11CE0E0D9CF76
:103B300089E6D6018C938EE611968C93119786E6D2
:103B4000E4CF9B0177FF02C030E020E0A1E0B0E0CD
:103B5000911102C0B0E0A0E0F9013196AE0FBF1F95
:103B60008B2C912CBB2009F461C05401EFEFAE1AED
:103B7000BE0AAA0DBB1DFA161B0619F014F04F2D34
:103B80004A1B511188C0E3FC59C07601A42FB0E252
:103B9000A1114FC0C40ED11C992309F45BC040E0B1
:103BA000D6011196F60190836D01552309F448C0A2
:103BB000012F060F9A81582F507184FF03C0913353
:103BC00009F4015010160CF047C0093008F008E065
:103BD000EEE2FE2E5B01A01AB1088501919481945A
:103BE00091082F3F320729F4D601FC92F601319655
:103BF0006F016217730794F1021713077CF5DB015D
:103C0000A21BB30BAA24A394B12CAC0EBD1EAA0D0B
:103C1000BB1D11968C9121503109D60111962815A2
:103C20003905F4F0F60180836D01DBCFB12CA12CB6
:103C3000A0CFF701B1937F01A150AACF9111B0CFCE
:103C4000D601942F50E302C05D9391509111FCCFA7
:103C5000C40ED11C40E0ACCF01E0BACF80E3DBCF93
:103C60006217730731F4963388F4953311F45523B2
:103C700069F0F6018083FD01842F90E2811108C074
:103C8000A40FB11D1C9290E080E002CF81E3F1CF40
:103C900091938150F3CF911183CF8ACF283008F0D0
:103CA00027E03327DA01990F311D87FD91600096D7
:103CB0006105710539F432602E5F3D9330E32A953A
:103CC000E1F708959F3F30F080387105610509F0F4
:103CD0003C5F3C5F3D93913008F08068911DDF931D
:103CE000CF931F930F93FF92EF92192F987F969582
:103CF000E92F96959695E90FFF27EE53FF4F9927E9
:103D00003327EE24FF24A701E701059008940794C8
:103D100028F4360FE71EF81E491F511D660F771F46
:103D2000881F991F0694A1F70590079428F4E70EC1
:103D3000F81E491F561FC11D770F881F991F661F48
:103D40000694A1F70590079428F4F80E491F561F12
:103D5000C71FD11D880F991F661F771F0694A1F7F3
:103D60000590079420F4490F561FC71FD81F990FBD
:103D7000661F771F881F0694A9F784911095177006
:103D800041F0D695C79557954795F794E7941A95BE
:103D9000C1F7E8E6F0E068941590159135916591CA
:103DA000959105907FE27395E118F10A430B560B4C
:103DB000C90BD009C0F7E10CF11E431F561FC91FE4
:103DC000D01D7EF4703311F48A95E6CFE89401504B
:103DD00030F0080F0AF40027021708F4202F23956B
:103DE000022F7A3328F079E37D932A95E9F710C002
:103DF0007D932A9589F6069497956795379517953B
:103E00001794E118F10A430B560BC90BD00998F02F
:103E100023957E9173957A3308F070E37C93201399
:103E2000B8F77E9170617D9330F0839571E37D9357
:103E300070E32A95E1F71124EF90FF900F911F9105
:103E4000CF91DF91992787FD90950895DC01FC01C2
:103E5000672F71917723E1F7329704C07C916D93BE
:103E600070836291AE17BF07C8F30895E89409C044
:103E700097FB3EF490958095709561957F4F8F4F9D
:103E80009F4F9923A9F0F92F96E9BB279395F695B3
:103E9000879577956795B795F111F8CFFAF4BB0F31
:103EA00011F460FF1BC06F5F7F4F8F4F9F4F16C095
:103EB000882311F096E911C0772321F09EE8872F1F
:103EC000762F05C0662371F096E8862F70E060E0DB
:103ED0002AF09A95660F771F881FDAF7880F969554
:103EE000879597F908950E94861F0C94F71F0E94EA
:103EF000E91F38F00E94F01F20F0952311F00C9478
:103F0000E01F0C94E61F11240C942B200E94082023
:103F100070F3959FC1F3950F50E0551F629FF0011C
:103F2000729FBB27F00DB11D639FAA27F00DB11D35
:103F3000AA1F649F6627B00DA11D661F829F2227BE
:103F4000B00DA11D621F739FB00DA11D621F839F45
:103F5000A00D611D221F749F3327A00D611D231F1B
:103F6000849F600D211D822F762F6A2F11249F5769
:103F700050409AF0F1F088234AF0EE0FFF1FBB1F6C
:103F8000661F771F881F91505040A9F79E3F51052B
:103F900080F00C94E01F0C942B205F3FE4F3983EDC
:103FA000D4F3869577956795B795F795E7959F5FD5
:103FB000C1F7FE2B880F911D9695879597F9089567
:103FC00097F99F6780E870E060E008959FEF80ECCC
:103FD000089500240A94161617061806090608956F
:103FE00000240A9412161306140605060895092ED5
:103FF0000394000C11F4882352F0BB0F40F4BF2B44
:1040000011F460FF04C06F5F7F4F8F4F9F4F089583
:1040100057FD9058440F551F59F05F3F71F0479579
:10402000880F97FB991F61F09F3F79F0879508955E
:10403000121613061406551FF2CF4695F1DF08C07D
:10404000161617061806991FF1CF8695710561059A
:1040500008940895E894BB2766277727CB0197F942
:1040600008950E947320A59F900DB49F900DA49F6A
:10407000800D911D112408952F923F924F925F92CF
:104080006F927F928F929F92AF92BF92CF92DF9268
:10409000EF92FF920F931F93CF93DF93CDB7DEB7CD
:1040A000CA1BDB0B0FB6F894DEBF0FBECDBF099461
:1040B0002A88398848885F846E847D848C849B84B8
:1040C000AA84B984C884DF80EE80FD800C811B81C6
:1040D000AA81B981CE0FD11D0FB6F894DEBF0FBEF5
:1040E000CDBFED010895A29FB001B39FC001A39F72
:1040F000700D811D1124911DB29F700D811D112421
:10410000911D0895991B79E004C0991F961708F036
:10411000961B881F7A95C9F780950895EE0FFF1FAB
:104120000590F491E02D09940F931F93CF93DF93A3
:104130008230910510F482E090E0E0917E06F091EB
:104140007F0630E020E0B0E0A0E0309799F4211540
:10415000310509F44AC0281B390B24303105D8F544
:104160008A819B816115710589F1FB0193838283AB
:10417000FE0111C040815181028113814817590706
:10418000E0F04817590799F4109761F012960C93D4
:10419000129713961C933296CF01DF91CF911F9106
:1041A0000F91089500937E0610937F06F4CF21159A
:1041B000310551F04217530738F0A901DB019A018C
:1041C000BD01DF01F801C1CFEF01F9CF90937F0668
:1041D00080937E06CDCFFE01E20FF31F8193919372
:1041E0002250310939832883D7CF20917C06309122
:1041F0007D06232B41F42091060130910701309375
:104200007D0620937C062091040130910501211543
:10421000310541F42DB73EB7409108015091090195
:10422000241B350BE0917C06F0917D06E217F30725
:10423000A0F42E1B3F0B2817390778F0AC014E5F16
:104240005F4F2417350748F04E0F5F1F50937D06D0
:1042500040937C06819391939FCFF0E0E0E09CCF68
:10426000CF93DF930097E9F0FC013297138212821B
:10427000A0917E06B0917F06ED0130E020E010971E
:10428000A1F420813181820F931F20917C0630910F
:104290007D062817390709F061C0F0937D06E09389
:1042A0007C06DF91CF910895EA01CE17DF07E8F58C
:1042B0004A815B819E0141155105B1F7E901FB83FC
:1042C000EA8349915991C40FD51FEC17FD0761F49A
:1042D000808191810296840F951FE90199838883DB
:1042E000828193819B838A83F0E0E0E012968D9136
:1042F0009C9113970097B9F52D913C911197CD01A1
:104300000296820F931F20917C0630917D0628171C
:10431000390739F6309751F510927F0610927E06D4
:10432000B0937D06A0937C06BCCFD383C28340812B
:104330005181840F951FC817D90761F44E5F5F4FF5
:1043400088819981480F591F518340838A819B81BD
:10435000938382832115310509F0B0CFF0937F0656
:10436000E0937E069ECFFD01DC01C0CF1382128256
:10437000D7CFB0E0A0E0EFEBF1E20C943E208C014F
:10438000009751F4CB010E9494208C01C801CDB755
:10439000DEB7E0E10C945A20FC01E60FF71F9C0108
:1043A00022503109E217F30708F49DC0D901CD91DD
:1043B000DC911197C617D70798F0C530D10530F3B7
:1043C000CE0104978617970708F3C61BD70B2297D1
:1043D000C193D1936D937C93CF010E943021D6CFAE
:1043E0005B01AC1ABD0A4C018C0E9D1EA0917E068D
:1043F000B0917F06512C412CF12CE12C109731F516
:1044000080917C0690917D068815990509F05CC025
:104410004616570608F058C0809104019091050196
:10442000009741F48DB79EB7409108015091090162
:10443000841B950BE817F90708F055C0F0937D062B
:10444000E0937C06F90171836083A0CF8D919C91EC
:10445000119712966C90129713967C901397A8154B
:10446000B90559F56C0142E0C40ED11CCA14DB0435
:1044700020F1AC014A195B09DA011296159780F018
:104480006282738251834083D9016D937C93E114DE
:10449000F10471F0D7011396FC93EE93129776CF47
:1044A00022968C0F9D1FF90191838083F301EFCF3A
:1044B000F0937F06E0937E0669CF4816590608F40C
:1044C0002C017D01D3019ACFCB010E9494207C0165
:1044D000009749F0AE01B8010E948322C8010E94F2
:1044E0003021870153CF10E000E050CFFB01DC0109
:1044F00004C08D910190801921F441505040C8F7BB
:10450000881B990B0895FB01DC0102C001900D92FC
:1045100041505040D8F70895FC018191861721F051
:104520008823D9F7992708953197CF010895FB0182
:10453000DC0101900D920020E1F70895FB01DC0100
:104540004150504048F001900D920020C9F701C041
:104550001D9241505040E0F70895AEE0B0E0E3EB2B
:10456000F2E20C944A200D891E8986E08C831A831E
:1045700009838FEF9FE79E838D83AE01475E5F4F78
:104580006F89788DCE0101960E94D0222F813885C7
:10459000020F131FF80110822E96E4E00C9466209F
:1045A000ABE0B0E0E6EDF2E20C943C207C013B0194
:1045B0008A01FC0117821682838181FFC8C1CE0166
:1045C00001965C01F7019381F30193FD859193FFBF
:1045D00081913F01882309F453C1853239F493FD59
:1045E000859193FF81913F01853229F4B70190E0D5
:1045F0000E94C024E7CF912C212C312CFFE1F31530
:1046000038F08B3211F190F4803209F1833229F1C4
:1046100037FC3CC020ED280F2A3050F536FE20C074
:104620008AE0989E200D1124922E06C08D3291F0C2
:10463000803371F7689430F8F30193FD859193FF0F
:1046400081913F018111DACF21C0689431F86894DB
:1046500032F8F2CF689433F8EFCF689434F8ECCFA7
:10466000EAE02E9E200D1124222E689435F8E4CF26
:104670008E3229F436FC04C1689436F8DDCF8C36CE
:1046800019F4689437F8D8CF8836B1F2982F9F7D07
:1046900095549330E0F08336A1F18337C1F183352F
:1046A00009F063C02801F2E04F0E511CF801C080F0
:1046B000D180692D70E036FC02C06FEF7FEFC6013C
:1046C0000E94AA244C01689437F882010AC00C5F4A
:1046D0001F4FFFE3F98388248394912C6501E894AC
:1046E00037F833FE2DC0522C8114910471F55520FA
:1046F00009F468CFB70180E290E00E94C0245A9488
:10470000F6CFF801808189830E5F1F4FE4CF280127
:10471000F2E04F0E511CF801C080D180692D70E08D
:1047200036FC02C06FEF7FEFC6010E94B5244C013A
:104730008201D5CFB70180E290E00E94C0242A9484
:104740002814190409F0B0F7CECFF60137FC859193
:1047500037FE81916F01B70190E00E94C024511093
:104760005A94F1E08F1A9108BFCF843619F0893638
:1047700009F077C0F80137FE6BC0608171818281DA
:1047800093810C5F1F4FF32DFF763F2E97FF09C0DB
:1047900090958095709561957F4F8F4F9F4F68944E
:1047A00037F82AE030E0A5010E94F024C82ECA188C
:1047B0008C2C432C36FE0CC0E89440F8C91440F40D
:1047C00034FE05C032FC03C0F32DFE7E4F2E892C33
:1047D00044FE95C0FE01EC0DF11D8081803309F08F
:1047E00087C0242D297E422E842D8870582E43FCAC
:1047F00095C040FE8FC09C2C821418F42C0C922C77
:10480000981844FE91C0B70180E390E00E94C02454
:1048100042FE09C088E790E041FE02C088E590E0D2
:10482000B7010E94C024C91408F48AC0CA94D12CCC
:104830009FEFC91AD90ACA0CDB1CF60182916F01DD
:10484000B70190E00E94C024AC14BD04B1F74FCF73
:1048500060817181072E000C880B990B0E5F1F4F32
:1048600092CFD32CE894D4F82AE030E0853739F1A0
:10487000232D297FD22E8F3601F148F48835A9F0F7
:10488000F701868197812B96E2E10C9458208037BE
:1048900049F08837A9F7D4FE02C06894D2F820E125
:1048A00030E00DC06894D4F8F6CF34FE03C0822FF8
:1048B0008660D82E20E132E002C028E030E0F80126
:1048C000D7FE0FC060817181828193810C5F1F4F81
:1048D000A5010E94F024C82ECA183D2CE89437F890
:1048E00067CF6081718190E080E00E5F1F4FF0CF55
:1048F00042FC02C0839478CF8394839475CF842D37
:10490000867809F471CFF6CFB70180E290E00E947B
:10491000C02483948214C0F3512C73CF522C5818A6
:10492000821408F46ECFF8CF842D867809F47BCFFB
:104930008BE241FE80E247FC8DE2B70190E071CF4F
:10494000B70180E390E00E94C0249A946CCF8FEF6F
:104950009FEF99CFFC010590615070400110D8F78E
:10496000809590958E0F9F1F0895FC0161507040B7
:1049700001900110D8F7809590958E0F9F1F089594
:104980000F931F93CF93DF93182F092FEB018B8188
:1049900081FD09C01FEF0FEF812F902FDF91CF9185
:1049A0001F910F91089582FF14C02E813F818C8149
:1049B0009D81281739073CF4E881F981CF010196E0
:1049C0009983888310838E819F8101969F838E8334
:1049D000E3CFE885F985812F0995892BA1F3DACFFB
:1049E000FA01AA27283051F1203181F1E8946F9320
:1049F0006E7F6E5F7F4F8F4F9F4FAF4FB1E03ED0C6
:104A0000B4E03CD0670F781F891F9A1FA11D680F63
:104A1000791F8A1F911DA11D6A0F711D811D911D96
:104A2000A11D20D009F468943F912AE0269F11240B
:104A30003019305D3193DEF6CF010895462F47706F
:104A4000405D4193B3E00FD0C9F7F6CF462F4F70CA
:104A5000405D4A3318F0495D31FD4052419302D028
:104A6000A9F7EACFB4E0A6959795879577956795CE
:104A7000BA95C9F700976105710508959B01AC01CE
:104A80000A2E06945795479537952795BA95C9F7F5
:104A9000620F731F841F951FA01D0895F894FFCF08
:104AA000FFFFFFFF000080068000000000006002A2
:104AB000C001ED01AD021E02FC0110020000000069
:104AC000240EC001010CBF0100000000B60E890ECB
:104AD0005F0E350E580E450E360E000000005A03CC
:104AE000070E4A03F80B2A03840B8E0B0D0A003BBA
:104AF00020200050616E6E656C6C6F20310050613B
:104B00006E6E656C6C6F2032005254432062656794
:104B1000696E206973204F4B210052544320697302
:104B2000204E4F542072756E6E696E67210053657A
:104B30007020203820323032320031313A33303A6E
:104B4000353200525443206973206E6F74207275A1
:104B50006E6E696E672100496E697469616C697A6D
:104B6000696E6720534420636172642E2E2E0049C3
:104B70006E697469616C697A6174696F6E20646FC3
:104B80006E652E00496E697469616C697A61746939
:104B90006F6E206661696C65642100536F6C617291
:104BA0004C6F672E63737600253034642D253032C8
:104BB000642D2530326420253032643A2530326449
:104BC0003A25303264002F006572726F72206F7068
:084BD000656E696E67200000AC
:00000001FF
